:1080000002C80A0003B3F3E60002F4B502F5B602B3
:10801000F6B701F701B801F802B9F90004B3FAA9FB
:108020001F01B402B5FB01B601B702FCB801FD01A6
:10803000B901FE01BA05B3F3A13FE502B4F402B5FC
:10804000F502B6F602B7F702B8F80002B9F9000275
:10805000BAFA03B3A91F02FBB401B502B6FC01B71B
:1080600002B8FD0002B9FE0002BAFF05B3F3A13F5A
:10807000E602B4F402B5F502B6F602B7F702B8F8B4
:108080000002B9F90002BAFA03B3A91F02FBB40156
:10809000B502B6FC01B702B8FD0002B9FE0002BA93
:1080A000FF05B3F3A13FE502B4F402B5F502B6F65D
:1080B00002B7F702B8F80002B9F90002BAFA03B33E
:1080C000A91F02FBB401B502B6FC01B702B8FD005E
:1080D00002B9FE0002BAFF05B3F3A13FE602B4F411
:1080E00002B5F502B6F602B7F702B8F80002B9F920
:1080F0000002BAFA03B3A91F02FBB401B502B6FC31
:1081000001B702B8FD0002B9FE0002BAFF05B3F3E1
:10811000A13FE502B4F402B5F502B6F602B7F702E4
:10812000B8F80002B9F90002BAFA03B3A91F02FBBA
:10813000B401B502B6FC01B702B8FD0002B9FE00F9
:1081400002BAFF05B3F3A13FE602B4F402B5F502AB
:10815000B6F602B7F702B8F80002B9F90002BAFAA7
:1081600003B3A91F02FBB401B502B6FC01B702B804
:10817000FD0002B9FE0002BAFF05B3F3A13FE5021C
:10818000B4F402B5F502B6F602B7F702B8F8000289
:10819000B9F90002BAFA03B3A91F02FBB401B50290
:1081A000B6FC01B702B8FD0002B9FE0002BAFF0832
:1081B000B3DCF3A13FCC0FE603D9B4F403B5D6F595
:1081C00003B6D3F603B7D0F702B8F80002B9F90046
:1081D00002BAFA05B3A91FC00E02FBB401B503B67B
:1081E000D1FC01B702B8FD0003B9D2FE0002BAFF0C
:1081F00008B3D0F3A13FC80CE502B4F402B5F5030F
:10820000B6D1F602B7F702B8F80003B9D2F9000206
:10821000BAFA06B3D0A91FCC0B02FBB401B503B662
:10822000D1FC01B702B8FD0003B9D2FE0002BAFFCB
:1082300005B3F3A13FE602B4F402B5F502B6F602C7
:10824000B7F703B8D3F80002B9F90002BAFA03B3DA
:10825000A91F02FBB401B503B6D4FC01B702B8FDF7
:108260000002B9FE0002BAFF08B3D1F3A13FC80C67
:10827000E503D0B4F402B5F502B6F603B7D1F702C0
:10828000B8F80002B9F90002BAFA04B3D2A91F0281
:10829000FBB401B502B6FC01B702B8FD0002B9FE9D
:1082A00001D302BAFF08B3D0F3A12AC00EE602B48C
:1082B000F402B5F503B6D1F602B7F702B8F8000339
:1082C000B9D2F90002BAFA05B3D015C80A02FBB454
:1082D00001B503B6D1FC01B702B8FD0003B9D2FE67
:1082E0000002BAFF05B3D0F32AE502B4F402B5F5F3
:1082F00003B6D1F602B7F702B8F80003B9D2F90015
:1083000002BAFA03B3D01502FBB401B503B6D1FC2F
:1083100001B702B8FD0003B9D2FE0002BAFF04B3F0
:10832000F33FE602B4F402B5F502B6F602B7F7037E
:10833000B8D3F80002B9F90002BAFA03B3A91F02D0
:10834000FBB401B503B6D4FC01B702B8FD0002B915
:10835000FE0002BAFF07B3D1F3A13F0CE503D0B48E
:10836000F402B5F502B6F603B7D1F702B8F8000289
:10837000B9F90002BAFA04B3D2A91F02FBB401B5DD
:1083800002B6FC01B702B8FD0002B9FE01D302BA81
:10839000FF08B3D0F3A13FCC0FE602B4F402B5F569
:1083A00003B6D1F602B7F702B8F80003B9D2F90064
:1083B00002BAFA06B3D0A91FC00E02FBB401B5037E
:1083C000B6D1FC01B702B8FD0003B9D2FE0002BA73
:1083D000FF08B3D0F3A13FC80CE502B4F402B5F531
:1083E00003B6D1F602B7F702B8F80003B9D2F90024
:1083F00002BAFA06B3D0A91FCC0B02FBB401B50335
:10840000B6D1FC01B702B8FD0003B9D2FE0002BA32
:10841000FF05B3F3A13FE602B4F402B5F502B6F6E8
:1084200002B7F703B8D3F80002B9F90002BAFA03A9
:10843000B3A91F02FBB401B503B6D4FC01B702B85F
:10844000FD0002B9FE0002BAFF08B3D1F3A13FC894
:108450000CE503D0B4F402B5F502B6F603B7D1F7D4
:1084600002B8F80002B9F90002BAFA04B3D2A91F9F
:1084700002FBB401B502B6FC01B702B8FD0002B9B7
:10848000FE01D302BAFF08B3D0F3A12AC00EE60260
:10849000B4F402B5F503B6D1F602B7F702B8F800A6
:1084A00003B9D2F90002BAFA02B31502FBB401B55E
:1084B00002B6FC01B703B8D3FD0002B9FE0002BA50
:1084C000FF06B3D0F3AC27E502B4F402B5F502B66B
:1084D000F603B7D1F702B8F80002B9F90002BAFA08
:1084E00004B3D2AE1302FBB401B502B6FC01B7026D
:1084F000B8FD0002B9FE01D302BAFF08B3D0F3A859
:1085000025C80CE602B4F402B5F503B6D1F602B7FD
:10851000F702B8F80003B9D2F90002BAFA03B3AC13
:108520001202FBB401B502B6FC01B703B8D3FD00DB
:1085300002B9FE0002BAFF05B3F3A825E502B4F4C0
:1085400002B5F503B6D4F602B7F702B8F80002B9DF
:10855000F90002BAFA03B3AC1203D5FBB401B502B9
:10856000B6FC01B702B8FD0002B9FE0003BAD6FF9F
:1085700008B3D2F3A42FCC0BE603D0B4F402B5F5C4
:1085800002B6F603B7D1F702B8F801B901F9000253
:10859000BAFA06B3D0AA17C80A02FBB501B603D1CE
:1085A000FCB70002B8FD02B9D201FE01BA01FF0812
:1085B000B3D0F3A42FC509E502B5F503B6D1F60291
:1085C000B7F701B801F803B9D2F90002BAFA03B358
:1085D000AA1704D0FBCD0801B503B6D1FC01B70141
:1085E000B801FD03B9D2FE0002BAFF03B3A42F0203
:1085F000F3E602B5F502B6F602B7F702B8D301F812
:1086000002B9F90002BAFA03B3AA1701FB01B503D4
:10861000B6D4FC01B702B8FD0002B9FE0002BAFFF1
:1086200006B3D1A42FC50903F3D0E502B5F502B610
:10863000F603B7D1F702B8F80002B9F90002BAFAA6
:1086400004B3D2AA1701FB01B502B6FC01B702B808
:10865000FD0002B9FE01D302BAFF07B3D0A13FC8A3
:108660000AE601F302B5F503B6D1F602B7F702B890
:10867000F80003B9D2F90002BAFA06B3D0A91FCEA6
:108680000701FB01B503B6D1FC01B702B8FD000339
:10869000B9D2FE0002BAFF06B3D0F3A13FE5000253
:1086A000B5F503B6D1F602B7F702B8F80003B9D2B0
:1086B000F90002BAFA04B3D0A91F01FB01B503B651
:1086C000D1FC01B702B8FD0003B9D2FE0002BAFF27
:1086D00005B3F3A42FE60002B5F502B6F602B7F72C
:1086E00003B8D3F80002B9F90002BAFA03B3AA1723
:1086F00001FB01B503B6D4FC01B702B8FD0002B915
:10870000FE0002BAFF08B3D1F3A42FC509E501D0DA
:1087100002B5F502B6F603B7D1F702B8F80002B910
:10872000F90002BAFA04B3D2AA1701FB01B502B6E6
:10873000FC01B702B8FD0002B9FE01D302BAFF087E
:10874000B3D0F3A42FCC0BE60002B5F503B6D1F6F7
:1087500002B7F702B8F80003B9D2F90002BAFA0674
:10876000B3D0AA17C80A01FB01B503B6D1FC01B703
:1087700002B8FD0003B9D2FE0002BAFF08B3D0F37D
:10878000A42FC509E50002B5F503B6D1F602B7F787
:1087900002B8F80003B9D2F90002BAFA06B3D0AAB7
:1087A00017CD0801FB01B503B6D1FC01B702B8FD36
:1087B0000003B9D2FE0002BAFF05B3F3A42FE6000E
:1087C00002B5F502B6F602B7F703B8D3F80002B95E
:1087D000F90002BAFA03B3AA1701FB01B503B6D434
:1087E000FC01B702B8FD0002B9FE0002BAFF08B3EF
:1087F000D1F3A42FC509E501D002B5F502B6F60301
:10880000B7D1F702B8F80002B9F90002BAFA04B316
:10881000D2AA1701FB01B502B6FC01B702B8FD00F0
:1088200002B9FE01D302BAFF08B3D0F3A13FC80AD0
:10883000E60002B5F503B6D1F602B7F702B8F800C4
:1088400003B9D2F90002BAFA03B3A91F01FB01B5BB
:1088500002B6FC01B703B8D3FD0002B9FE0002BAAC
:10886000FF06B3D0F3A13FE50002B5F502B6F6036B
:10887000B7D1F702B8F80002B9F90002BAFA04B3A6
:10888000D2A91F01FB01B502B6FC01B702B8FD0079
:1088900002B9FE01D302BAFF08B3D0F3A42FCC0B68
:1088A000E60002B5F503B6D1F602B7F702B8F80054
:1088B00003B9D2F90002BAFA03B3AA1701FB01B552
:1088C00002B6FC01B703B8D3FD0002B9FE0002BA3C
:1088D000FF05B3F3A42FE50002B5F503B6D4F60205
:1088E000B7F702B8F80002B9F90002BAFA03B3AA5E
:1088F0001702D5FB01B502B6FC01B702B8FD0002B4
:10890000B9FE0003BAD6FF05B3F3A42FE60002B503
:10891000F502B6F602B7F702B8F80003B9D7F900C6
:1089200002BAFA03B3AA1701FB01B502B6FC01B7FC
:1089300003B8D8FD0002B9FE0002BAFF05B3F3A4E4
:108940002FE50002B5F503B6D9F602B7F702B8F87D
:108950000002B9F90002BAFA03B3AA1702DAFB015E
:10896000B502B6FC01B702B8FD0002B9FE0003BAB9
:10897000DBFF05B3F3A42FE60002B5F502B6F6025D
:10898000B7F702B8F80003B9DCF90002BAFA03B38A
:10899000AA1701FB01B502B6FC01B703B8DDFD0063
:1089A00002B9FE0002BAFF05B3F3A42FE50002B539
:1089B000F503B6DEF602B7F702B8F80002B9F9001F
:1089C00002BAFA03B3AA1702DFFB01B502B6FC0133
:1089D000B702B8FD0002B9FE0002BAFF05B3F3A466
:1089E0002FE60002B5F502B6F602B7F702B8F800B6
:1089F00002B9F90002BAFA03B3AA1701FB01B502E2
:108A0000B6FC01B702B8FD0002B9FE0002BAFF05CC
:108A1000B3F3A42FE50002B5F502B6F602B7F702EC
:108A2000B8F80002B9F90002BAFA03B3AA1701FBB9
:108A300001B502B6FC01B702B8FD0002B9FE0002A2
:108A4000BAFF07B3DCF3A13F0FE601D903B5D6F5B2
:108A500003B6D3F603B7D0F702B8F80002B9F900AD
:108A600002BAFA05B3A91FC00E01FB01B503B6D1C6
:108A7000FC01B702B8FD0003B9D2FE0002BAFF083C
:108A8000B3D0F3A13FC80CE50002B5F503B6D1F6AB
:108A900002B7F702B8F80003B9D2F90002BAFA0631
:108AA000B3D0A91FCC0B01FB01B503B6D1FC01B7B4
:108AB00002B8FD0003B9D2FE0002BAFF05B3F3A16C
:108AC0003FE60002B5F502B6F602B7F703B8D3F8F1
:108AD0000002B9F90002BAFA03B3A91F01FB01B5FC
:108AE00003B6D4FC01B702B8FD0002B9FE0002BA19
:108AF000FF08B3D1F3A13FC80CE501D002B5F502E0
:108B0000B6F603B7D1F702B8F80002B9F90002BA15
:108B1000FA04B3D2A91F01FB01B502B6FC01B702EA
:108B2000B8FD0002B9FE01D302BAFF08B3D0F3A129
:108B30002AC00EE601B402B5F503B6D1F602B7F7C6
:108B400002B8F80003B9D2F90002BAFA05B3D01599
:108B5000C80A02FBB401B503B6D1FC01B702B8FDE7
:108B60000003B9D2FE0002BAFF05B3D0F32AE50232
:108B7000B4F402B5F503B6D1F602B7F702B8F800BF
:108B800003B9D2F90002BAFA03B3D01502FBB4015B
:108B9000B503B6D1FC01B702B8FD0003B9D2FE009F
:108BA00002BAFF04B3F33FE602B4F402B5F502B62D
:108BB000F602B7F703B8D3F80002B9F90002BAFA1F
:108BC00003B3A91F02FBB401B503B6D4FC01B7027D
:108BD000B8FD0002B9FE0002BAFF07B3D1F3A13F0E
:108BE0000CE503D0B4F402B5F502B6F603B7D1F73D
:108BF00002B8F80002B9F90002BAFA04B3D2A91F08
:108C000002FBB401B502B6FC01B702B8FD0002B91F
:108C1000FE01D302BAFF08B3D0F3A13FCC0FE602A6
:108C2000B4F402B5F503B6D1F602B7F702B8F8000E
:108C300003B9D2F90002BAFA06B3D0A91FC00E02D6
:108C4000FBB401B503B6D1FC01B702B8FD0003B90E
:108C5000D2FE0002BAFF08B3D0F3A13FC80CE50270
:108C6000B4F402B5F503B6D1F602B7F702B8F800CE
:108C700003B9D2F90002BAFA06B3D0A91FCC0B028D
:108C8000FBB401B503B6D1FC01B702B8FD0003B9CE
:108C9000D2FE0002BAFF05B3F3A13FE602B4F4022C
:108CA000B5F502B6F602B7F703B8D3F80002B9F982
:108CB0000002BAFA03B3A91F02FBB401B503B6D48C
:108CC000FC01B702B8FD0002B9FE0002BAFF08B30A
:108CD000D1F3A13FC80CE503D0B4F402B5F502B658
:108CE000F603B7D1F702B8F80002B9F90002BAFAF0
:108CF00004B3D2A91F02FBB401B502B6FC01B7024E
:108D0000B8FD0002B9FE01D302BAFF08B3D0F3A147
:108D10002AC00EE602B4F402B5F503B6D1F602B7E6
:108D2000F702B8F80003B9D2F90002BAFA02B31593
:108D300002FBB401B502B6FC01B703B8D3FD0002D3
:108D4000B9FE0002BAFF06B3D0F3AC27E502B4F4D3
:108D500002B5F502B6F603B7D1F702B8F80002B9CA
:108D6000F90002BAFA04B3D2AE1302FBB401B502A1
:108D7000B6FC01B702B8FD0002B9FE01D302BAFF8A
:108D800008B3D0F3A825C80CE602B4F402B5F50385
:108D9000B6D1F602B7F702B8F80003B9D2F900026B
:108DA000BAFA03B3AC1202FBB401B502B6FC01B7C8
:108DB00003B8D3FD0002B9FE0002BAFF05B3F3A861
:108DC00025E502B4F402B5F503B6D4F602B7F7020E
:108DD000B8F80002B9F90002BAFA03B3AC1203D52D
:108DE000FBB401B502B6FC01B702B8FD0002B9FE42
:108DF0000003BAD6FF08B3D2F3A42FCC0BE603D0FE
:108E0000B4F402B5F502B6F603B7D1F702B8F8002C
:108E100002B9F90002BAFA06B3D0AA17C80A02FBCF
:108E2000B401B503B6D1FC01B702B8FD0003B9D255
:108E3000FE0002BAFF08B3D0F3A42FC509E502B4BF
:108E4000F402B5F503B6D1F602B7F702B8F800039D
:108E5000B9D2F90002BAFA06B3D0AA17CD0802FBBC
:108E6000B401B503B6D1FC01B702B8FD0003B9D215
:108E7000FE0002BAFF05B3F3A42FE602B4F402B574
:108E8000F502B6F602B7F703B8D3F80002B9F90055
:108E900002BAFA03B3AA1702FBB401B503B6D4FCB5
:108EA00001B702B8FD0002B9FE0002BAFF08B3D153
:108EB000F3A42FC509E503D0B4F402B5F502B6F664
:108EC00003B7D1F702B8F80002B9F90002BAFA0400
:108ED000B3D2AA1702FBB401B502B6FC01B702B8BF
:108EE000FD0002B9FE01D302BAFF08B3D0F3A13FDF
:108EF000C80AE602B4F402B5F503B6D1F602B7F734
:108F000002B8F80003B9D2F90002BAFA06B3D0A940
:108F10001FCE0702FBB401B503B6D1FC01B702B8FE
:108F2000FD0003B9D2FE0002BAFF06B3D0F3A13FA1
:108F3000E502B4F402B5F503B6D1F602B7F702B80C
:108F4000F80003B9D2F90002BAFA04B3D0A91F029B
:108F5000FBB401B503B6D1FC01B702B8FD0003B9FB
:108F6000D2FE0002BAFF05B3F3A42FE602B4F40266
:108F7000B5F502B6F602B7F703B8D3F80002B9F9AF
:108F80000002BAFA03B3AA1702FBB401B503B6D4C0
:108F9000FC01B702B8FD0002B9FE0002BAFF08B337
:108FA000D1F3A42FC509E503D0B4F402B5F502B698
:108FB000F603B7D1F702B8F80002B9F90002BAFA1D
:108FC00004B3D2AA1702FBB401B502B6FC01B70282
:108FD000B8FD0002B9FE01D302BAFF08B3D0F3A175
:108FE0003FCC0FE602B4F402B5F503B6D1F602B7F2
:108FF000F702B8F80003B9D2F90002BAFA06B3D002
:10900000A91FC00E02FBB401B503B6D1FC01B70223
:10901000B8FD0003B9D2FE0002BAFF08B3D0F3A135
:109020003FC80CE502B4F402B5F503B6D1F602B7B9
:10903000F702B8F80003B9D2F90002BAFA06B3D0C1
:10904000A91FCC0B02FBB401B503B6D1FC01B702DA
:10905000B8FD0003B9D2FE0002BAFF05B3F3A42F96
:10906000E602B4F402B5F502B6F602B7F703B8D3D8
:10907000F80002B9F90002BAFA03B3AA1702FBB466
:1090800001B503B6D4FC01B702B8FD0002B9FE0079
:1090900002BAFF05B3F3A42FE503D5B4F402B5F586
:1090A00002B6F602B7F702B8F80002B9F90003BA3F
:1090B000D6FA03B3AA1702FBB501B602FCB7000249
:1090C000B8FD01B902D7FE01BA01FF05B3F3A12A29
:1090D000E602F4B502F5B602F6B702F7B802D8F820
:1090E00002B9F90001BA02FA1502B3FB01B503B6E1
:1090F000D9FC01B701B801FD02B9FE0002BAFF02B6
:10910000B32A03F3DAE502B5F502B6F602B7F701C2
:10911000B801F802B9F90003BADBFA02B31504D4B6
:10912000FBC80C02B5D103B6D0FC01B703B8CC0B19
:1091300001FD02B9FE01D102BAFF04B32AC80C0333
:10914000D0F3E602B5F503B6D1F602B7F702B8F8E8
:109150000003B9D2F90002BAFA02B31501FB01B556
:1091600002B6FC01B703B8D3FD0002B9FE0002BA93
:10917000FF05B3D02AC00E02F3E502B5F502B6F63C
:1091800003B7D1F702B8F80002B9F90002BAFA053C
:10919000B3D015CC0F01FB01B503B6D1FC01B7026A
:1091A000B8FD0003B9D2FE0002BAFF05B3D0F33F09
:1091B000E60002B5F503B6D1F602B7F702B8F8003B
:1091C00003B9D2F90002BAFA03B3A91F01FB01B532
:1091D00002B6FC01B703B8D3FD0002B9FE0002BA23
:1091E000FF05B3F3A13FE50002B5F503B6D4F602DF
:1091F000B7F702B8F80002B9F90002BAFA03B3A946
:109200001F02D5FB01B502B6FC01B702B8FD000292
:10921000B9FE0003BAD6FF05B3F3A13FE60002B5DD
:10922000F502B6F602B7F702B8F80003B9D7F900AD
:1092300002BAFA03B3A91F01FB01B502B6FC01B7DC
:1092400003B8D8FD0002B9FE0002BAFF05B3F3A1CE
:109250003FE50002B5F503B6D9F602B7F702B8F854
:109260000002B9F90002BAFA03B3A91F02DAFB013E
:10927000B502B6FC01B702B8FD0002B9FE0003BAA0
:10928000DBFF08B3D7F3A13FCE07E601D403B5D186
:10929000F503B6D0F602B7F702B8F80002B9F90143
:1092A000D102BAFA03B3A91F01FB01B502B6FC0152
:1092B000B702B8FD01D202B9FE0002BAFF05B3F34E
:1092C000A13FE50002B5F502B6F603B7D3F702B841
:1092D000F80002B9F90002BAFA03B3A91F01FB02B0
:1092E000B5D402B6FC01B702B8FD0002B9FE000217
:1092F000BAFF06B3D5F3A13FE60002B5F502B6F614
:1093000002B7F702B8F80002B9F901D602BAFA03B7
:10931000B3A91F01FB01B502B6FC01B702B8FD01FC
:10932000D702B9FE0002BAFF05B3F3A13FE5000280
:10933000B5F502B6F603B7D8F702B8F80002B9F9E6
:109340000002BAFA03B3A91F01FB02B5D902B6FCA9
:1093500001B702B8FD0002B9FE0002BAFF06B3DA97
:10936000F3A13FE60002B5F502B6F602B7F702B880
:10937000F80002B9F901DB02BAFA03B3A91F01FB35
:1093800001B502B6FC01B702B8FD01DC02B9FE006E
:1093900002BAFF05B3F3A13FE50002B5F502B6F648
:1093A00003B7DDF702B8F80002B9F90002BAFA0310
:1093B000B3A91F01FB02B5DE02B6FC01B702B8FD7E
:1093C0000002B9FE0002BAFF06B3DFF3A13FE600D8
:1093D00002B5F502B6F602B7F702B8F80002B9F91D
:1093E0000002BAFA03B3A91F01FB01B502B6FC01E2
:1093F000B702B8FD0002B9FE0002BAFF05B3F3A13F
:109400003FE50002B5F502B6F602B7F702B8F8007C
:1094100002B9F90002BAFA03B3A91F01FB01B502B0
:10942000B6FC01B702B8FD0002B9FE0002BAFF05A2
:10943000B3F3A13FE60002B5F502B6F602B7F702B4
:10944000B8F80002B9F90002BAFA03B3A91F01FB88
:1094500001B502B6FC01B702B8FD0002B9FE000278
:10946000BAFF05B3F3A13FE50002B5F502B6F60277
:10947000B7F702B8F80002B9F90002BAFA03B3A9C3
:109480001F01FB01B502B6FC01B702B8FD0002B92D
:10949000FE0002BAFF05B3F3A13FE60002B5F502F4
:1094A000B6F602B7F702B8F80002B9F90002BAFA44
:1094B00003B3A91F01FB01B502B6FC01B702B8FD59
:1094C0000002B9FE0002BAFF05B3F3A13FE50002B6
:1094D000B5F502B6F602B7F702B8F80002B9F9001E
:1094E00002BAFA03B3A91F01FB01B502B6FC01B72A
:1094F00002B8FD0002B9FE0002BAFF08B3DCF3A116
:109500003FCC0FE601D903B5D6F503B6D3F603B7C2
:10951000D0F702B8F80002B9F90002BAFA05B3A907
:109520001FC00E01FB01B503B6D1FC01B702B8FDA7
:109530000003B9D2FE0002BAFF08B3D0F3A13FC8BE
:109540000CE50002B5F503B6D1F602B7F702B8F89C
:109550000003B9D2F90002BAFA06B3D0A91FCC0BA6
:1095600001FB01B503B6D1FC01B702B8FD0003B998
:10957000D2FE0002BAFF05B3F3A13FE60002B5F543
:1095800002B6F602B7F703B8D3F80002B9F9000241
:10959000BAFA03B3A91F01FB01B503B6D4FC01B7A6
:1095A00002B8FD0002B9FE0002BAFF08B3D1F3A170
:1095B0003FC80CE501D002B5F502B6F603B7D1F706
:1095C00002B8F80002B9F90002BAFA04B3D2A91F2E
:1095D00001FB01B502B6FC01B702B8FD0002B9FEFD
:1095E00001D302BAFF08B3D0F3A12AC00EE60002ED
:1095F000B5F503B6D1F602B7F702B8F80003B9D251
:10960000F90002BAFA05B3D015C80A01FB01B50387
:10961000B6D1FC01B702B8FD0003B9D2FE0002BA10
:10962000FF05B3D0F32AE501B402B5F503B6D1F6D0
:1096300002B7F702B8F80003B9D2F90002BAFA0388
:10964000B3D01502FBB401B503B6D1FC01B702B823
:10965000FD0003B9D2FE0002BAFF04B3F33FE602F5
:10966000B4F402B5F502B6F602B7F703B8D3F800C2
:1096700002B9F90002BAFA03B3A91F02FBB401B59B
:1096800003B6D4FC01B702B8FD0002B9FE0002BA6D
:10969000FF07B3D1F3A13F0CE503D0B4F402B5F555
:1096A00002B6F603B7D1F702B8F80002B9F9000222
:1096B000BAFA04B3D2A91F02FBB401B502B6FC0189
:1096C000B702B8FD0002B9FE01D302BAFF08B3D059
:1096D000F3A13FCC0FE602B4F402B5F503B6D1F620
:1096E00002B7F702B8F80003B9D2F90002BAFA06D5
:1096F000B3D0A91FC00E02FBB401B503B6D1FC0163
:10970000B702B8FD0003B9D2FE0002BAFF08B3D019
:10971000F3A13FC80CE502B4F402B5F503B6D1F6E7
:1097200002B7F702B8F80003B9D2F90002BAFA0694
:10973000B3D0A91FCC0B02FBB401B503B6D1FC0119
:10974000B702B8FD0003B9D2FE0002BAFF05B3F3B9
:10975000A13FE602B4F402B5F502B6F602B7F7038C
:10976000B8D3F80002B9F90002BAFA03B3A91F028C
:10977000FBB401B503B6D4FC01B702B8FD0002B9D1
:10978000FE0002BAFF08B3D1F3A13FC80CE503D035
:10979000B4F402B5F502B6F603B7D1F702B8F80093
:1097A00002B9F90002BAFA04B3D2A91F02FBB4014C
:1097B000B502B6FC01B702B8FD0002B9FE01D30242
:1097C000BAFF08B3D0F3A12AC00EE602B4F402B582
:1097D000F503B6D1F602B7F702B8F80003B9D2F92B
:1097E0000002BAFA02B31502FBB401B502B6FC01DD
:1097F000B703B8D3FD0002B9FE0002BAFF06B3D02A
:10980000F3AC27E502B4F402B5F502B6F603B7D11E
:10981000F702B8F80002B9F90002BAFA04B3D2AEFE
:109820001302FBB401B502B6FC01B702B8FD000299
:10983000B9FE01D302BAFF08B3D0F3A825C80CE6DD
:1098400002B4F402B5F503B6D1F602B7F702B8F8E0
:109850000003B9D2F90002BAFA03B3AC1202FBB4A6
:1098600001B502B6FC01B703B8D3FD0002B9FE0092
:1098700002BAFF05B3F3A825E502B4F402B5F50377
:10988000B6D4F602B7F702B8F80002B9F90002BA86
:10989000FA03B3AC1203D5FBB401B502B6FC01B7B1
:1098A00002B8FD0002B9FE0003BAD6FF08B3D2F336
:1098B000A42FCC0BE603D0B4F402B5F502B6F60340
:1098C000B7D1F702B8F80002B9F90002BAFA06B344
:1098D000D0AA17C80A02FBB401B503B6D1FC01B780
:1098E00002B8FD0003B9D2FE0002BAFF08B3D0F3FC
:1098F000A42FC509E502B4F402B5F503B6D1F6020A
:10990000B7F702B8F80003B9D2F90002BAFA06B301
:10991000D0AA17CD0802FBB401B503B6D1FC01B73C
:1099200002B8FD0003B9D2FE0002BAFF05B3F3A4EA
:109930002FE602B4F402B5F502B6F602B7F703B8A3
:10994000D3F80002B9F90002BAFA03B3AA1702FB6E
:10995000B401B503B6D4FC01B702B8FD0002B9FEEC
:109960000002BAFF08B3D1F3A42FC509E503D0B4B0
:10997000F402B5F502B6F603B7D1F702B8F8000263
:10998000B9F90002BAFA04B3D2AA1702FBB401B5BE
:1099900002B6FC01B702B8FD0002B9FE01D302BA5B
:1099A000FF08B3D0F3A13FC80AE602B4F402B5F54C
:1099B00003B6D1F602B7F702B8F80003B9D2F9003E
:1099C00002BAFA06B3D0A91FCE0702FBB401B50351
:1099D000B6D1FC01B702B8FD0003B9D2FE0002BA4D
:1099E000FF06B3D0F3A13FE502B4F402B5F503B628
:1099F000D1F602B7F702B8F80003B9D2F90002BAFB
:109A0000FA04B3D0A91F02FBB401B503B6D1FC011F
:109A1000B702B8FD0003B9D2FE0002BAFF05B3F3E6
:109A2000A42FE602B4F402B5F502B6F602B7F703C6
:109A3000B8D3F80002B9F90002BAFA03B3AA1702C0
:109A4000FBB401B503B6D4FC01B702B8FD0002B9FE
:109A5000FE0002BAFF08B3D1F3A42FC509E503D075
:109A6000B4F402B5F502B6F603B7D1F702B8F800C0
:109A700002B9F90002BAFA04B3D2AA1702FBB40180
:109A8000B502B6FC01B702B8FD0002B9FE01D3026F
:109A9000BAFF08B3D0F3A42FCC0BE602B4F402B59E
:109AA000F503B6D1F602B7F702B8F80003B9D2F958
:109AB0000002BAFA06B3D0AA17C80A02FBB401B56D
:109AC00003B6D1FC01B702B8FD0003B9D2FE000213
:109AD000BAFF08B3D0F3A42FC509E502B4F402B568
:109AE000F503B6D1F602B7F702B8F80003B9D2F918
:109AF0000002BAFA06B3D0AA17CD0802FBB401B52A
:109B000003B6D1FC01B702B8FD0003B9D2FE0002D2
:109B1000BAFF05B3F3A42FE602B4F402B5F502B61A
:109B2000F602B7F703B8D3F80002B9F90002BAFA9F
:109B300003B3AA1702FBB401B503B6D4FC01B70204
:109B4000B8FD0002B9FE0002BAFF08B3D1F3A42F9A
:109B5000C509E503D0B4F402B5F502B6F603B7D1F2
:109B6000F702B8F80002B9F90002BAFA04B3D2AAAF
:109B70001702FBB401B502B6FC01B702B8FD000242
:109B8000B9FE01D302BAFF08B3D0F3A13FC80AE679
:109B900002B4F402B5F503B6D1F602B7F702B8F88D
:109BA0000003B9D2F90002BAFA03B3A91F02FBB449
:109BB00001B601FC01B703B8D3FD01B901FE01BA3A
:109BC00001FF06B3D0F3A13FE502F4B502F5B603F9
:109BD000F6B7D101F702B8F801B901F901BA03FAF1
:109BE000A91F03B3D2FB01B502B6FC01B701B8014E
:109BF000FD02B9FE01D302BAFF03B3A42F05D0F3CF
:109C0000CC0BE602B5F503B6D1F602B7F701B80101
:109C1000F803B9D2F90002BAFA03B3AA1701FB019B
:109C2000B502B6FC01B702B8D301FD02B9FE0002CD
:109C3000BAFF03B3A42F02F3E502B5F503B6D4F6D9
:109C400002B7F702B8F80002B9F90002BAFA03B392
:109C5000AA1702D5FB01B502B6FC01B702B8FD0098
:109C600002B9FE0003BAD6FF05B3F3A42FE6000243
:109C7000B5F502B6F602B7F702B8F80003B9D7F99E
:109C80000002BAFA03B3AA1701FB01B502B6FC0140
:109C9000B703B8D8FD0002B9FE0002BAFF05B3F35E
:109CA000A42FE50002B5F503B6D9F602B7F702B85E
:109CB000F80002B9F90002BAFA03B3AA1702DAFBF4
:109CC00001B502B6FC01B702B8FD0002B9FE0003FF
:109CD000BADBFF05B3F3A42FE60002B5F502B6F632
:109CE00002B7F702B8F80003B9DCF90002BAFA03C8
:109CF000B3AA1701FB01B502B6FC01B703B8DDFD3D
:109D00000002B9FE0002BAFF05B3F3A42FE500027A
:109D1000B5F503B6DEF602B7F702B8F80002B9F9F6
:109D20000002BAFA03B3AA1702DFFB01B502B6FCC0
:109D300001B702B8FD0002B9FE0002BAFF05B3F395
:109D4000A42FE60002B5F502B6F602B7F702B8F89E
:109D50000002B9F90002BAFA03B3AA1701FB01B570
:109D600002B6FC01B702B8FD0002B9FE0002BAFF5C
:109D700005B3F3A42FE50002B5F502B6F602B7F776
:109D800002B8F80002B9F90002BAFA03B3AA17013F
:109D9000FB01B502B6FC01B702B8FD0002B9FE0036
:109DA00002BAFF07B3DCF3A13F0FE601D903B5D632
:109DB000F503B6D3F603B7D0F702B8F80002B9F945
:109DC0000002BAFA05B3A91FC00E01FB01B503B624
:109DD000D1FC01B702B8FD0003B9D2FE0002BAFF00
:109DE00008B3D0F3A13FC80CE50002B5F503B6D126
:109DF000F602B7F702B8F80003B9D2F90002BAFACE
:109E000006B3D0A91FCC0B01FB01B503B6D1FC01F1
:109E1000B702B8FD0003B9D2FE0002BAFF05B3F3E2
:109E2000A13FE60002B5F502B6F602B7F703B8D3D4
:109E3000F80002B9F90002BAFA03B3A91F01FB0145
:109E4000B503B6D4FC01B702B8FD0002B9FE0002AA
:109E5000BAFF08B3D1F3A13FC80CE501D002B5F5B4
:109E600002B6F603B7D1F702B8F80002B9F900025A
:109E7000BAFA04B3D2A91F01FB01B502B6FC01B7BF
:109E800002B8FD0002B9FE01D302BAFF08B3D0F355
:109E9000A12AC00EE60002B5F503B6D1F602B7F767
:109EA00002B8F80003B9D2F90002BAFA05B3D01526
:109EB000C80A01FB01B503B6D1FC01B702B8FD0029
:109EC00003B9D2FE0002BAFF05B3D0F32AE50002BF
:109ED000B5F503B6D1F602B7F702B8F80003B9D268
:109EE000F90002BAFA03B3D01501FB01B503B6D1EC
:109EF000FC01B702B8FD0003B9D2FE0002BAFF04AC
:109F0000B3F33FE60002B5F502B6F602B7F703B8C1
:109F1000D3F80002B9F90002BAFA03B3A91F01FB92
:109F200001B503B6D4FC01B702B8FD0002B9FE00CA
:109F300002BAFF07B3D1F3A13F0CE501D002B5F59A
:109F400002B6F603B7D1F702B8F80002B9F9000279
:109F5000BAFA04B3D2A91F01FB01B502B6FC01B7DE
:109F600002B8FD0002B9FE01D302BAFF08B3D0F374
:109F7000A13FCC0FE60002B5F503B6D1F602B7F764
:109F800002B8F80003B9D2F90002BAFA06B3D0A9B0
:109F90001FC00E01FB01B503B6D1FC01B702B8FD2D
:109FA0000003B9D2FE0002BAFF08B3D0F3A13FC844
:109FB0000CE50002B5F503B6D1F602B7F702B8F822
:109FC0000003B9D2F90002BAFA06B3D0A91FCC0B2C
:109FD00001FB01B503B6D1FC01B702B8FD0003B91E
:109FE000D2FE0002BAFF05B3F3A13FE60002B5F5C9
:109FF00002B6F602B7F703B8D3F80002B9F90002C7
:10A00000BAFA03B3A91F01FB01B503B6D4FC01B72B
:10A0100002B8FD0002B9FE0002BAFF08B3D1F3A1F5
:10A020003FC80CE501D002B5F502B6F603B7D1F78B
:10A0300002B8F80002B9F90002BAFA04B3D2A91FB3
:10A0400001FB01B502B6FC01B702B8FD0002B9FE82
:10A0500001D302BAFF08B3D0F3A12AC00EE6000272
:10A06000B5F503B6D1F602B7F702B8F80003B9D2D6
:10A07000F90002BAFA02B31501FB01B502B6FC0100
:10A08000B703B8D3FD0002B9FE0002BAFF06B3D091
:10A09000F3AC27E50002B5F502B6F603B7D1F70237
:10A0A000B8F80002B9F90002BAFA04B3D2AE13014B
:10A0B000FB01B502B6FC01B702B8FD0002B9FE0112
:10A0C000D302BAFF08B3D0F3A825C80CE60002B546
:10A0D000F503B6D1F602B7F702B8F80003B9D2F922
:10A0E0000002BAFA03B3AC1201FB01B502B6FC01DF
:10A0F000B703B8D3FD0002B9FE0002BAFF05B3F3FF
:10A10000A825E50002B5F503B6D4F602B7F702B804
:10A11000F80002B9F90002BAFA03B3AC1203D5FB96
:10A12000B401B502B6FC01B702B8FD0002B9FE00E9
:10A1300003BAD6FF08B3D2F3A42FCC0BE603D0B4F6
:10A14000F402B5F502B6F603B7D1F702B8F800028B
:10A15000B9F90002BAFA06B3D0AA17C80A02FBB4CA
:10A1600001B503B6D1FC01B702B8FD0003B9D2FEB8
:10A170000002BAFF08B3D0F3A42FC509E502B4F476
:10A1800002B5F503B6D1F602B7F702B8F80003B985
:10A19000D2F90002BAFA06B3D0AA17CD0802FBB46E
:10A1A00001B503B6D1FC01B702B8FD0003B9D2FE78
:10A1B0000002BAFF05B3F3A42FE602B4F402B5F52A
:10A1C00002B6F602B7F703B8D3F80002B9F90002F5
:10A1D000BAFA03B3AA1702FBB401B503B6D4FC0163
:10A1E000B702B8FD0002B9FE0002BAFF08B3D1F30E
:10A1F000A42FC509E503D0B4F402B5F502B6F60301
:10A20000B7D1F702B8F80002B9F90002BAFA04B3FC
:10A21000D2AA1702FBB401B502B6FC01B702B8FD21
:10A220000002B9FE01D302BAFF08B3D0F3A13FC8C0
:10A230000AE602B4F402B5F503B6D1F602B7F702A6
:10A24000B8F80003B9D2F90002BAFA06B3D0A91FD0
:10A25000CE0702FBB401B503B6D1FC01B702B8FDCD
:10A260000003B9D2FE0002BAFF06B3D0F3A13FE566
:10A2700002B4F402B5F503B6D1F602B7F702B8F8A6
:10A280000003B9D2F90002BAFA04B3D0A91F02FB45
:10A29000B401B503B6D1FC01B702B8FD0003B9D2D1
:10A2A000FE0002BAFF05B3F3A42FE602B4F402B530
:10A2B000F502B6F602B7F703B8D3F80002B9F90011
:10A2C00002BAFA03B3AA1702FBB401B503B6D4FC71
:10A2D00001B702B8FD0002B9FE0002BAFF08B3D10F
:10A2E000F3A42FC509E503D0B4F402B5F502B6F620
:10A2F00003B7D1F702B8F80002B9F90002BAFA04BC
:10A30000B3D2AA1702FBB401B502B6FC01B702B87A
:10A31000FD0002B9FE01D302BAFF08B3D0F3A13F9A
:10A32000CC0FE602B4F402B5F503B6D1F602B7F7E6
:10A3300002B8F80003B9D2F90002BAFA06B3D0A9FC
:10A340001FC00E02FBB401B503B6D1FC01B702B8C1
:10A35000FD0003B9D2FE0002BAFF08B3D0F3A13F5B
:10A36000C80CE502B4F402B5F503B6D1F602B7F7AE
:10A3700002B8F80003B9D2F90002BAFA06B3D0A9BC
:10A380001FCC0B02FBB401B503B6D1FC01B702B878
:10A39000FD0003B9D2FE0002BAFF05B3F3A42FE615
:10A3A00002B4F402B5F502B6F602B7F703B8D3F873
:10A3B0000002B9F90002BAFA03B3AA1702FBB4010A
:10A3C000B503B6D4FC01B702B8FD0002B9FE000225
:10A3D000BAFF05B3F3A42FE503D5B4F402B5F50233
:10A3E000B6F602B7F702B8F80002B9F90003BAD618
:10A3F000FA03B3AA1702FBB401B502B6FC01B70217
:10A40000B8FD0003B9D7FE0002BAFF05B3F3A12AD5
:10A41000E602B4F402B5F502B6F602B7F703B8D80F
:10A42000F80002B9F90002BAFA02B31502FBB4014E
:10A43000B503B6D9FC01B702B8FD0002B9FE0002AF
:10A44000BAFF04B3F32AE503DAB4F402B5F502B6B1
:10A45000F602B7F702B8F80002B9F90003BADBFA5E
:10A4600005B3D715C80C03D4FBB402B5D103B6D0DD
:10A47000FC01B704B8FDCC0B0002B9FE01D102BA51
:10A48000FF07B3D0F32AC80CE602B4F402B5F50313
:10A49000B6D1F602B7F702B8F80003B9D2F9000254
:10A4A000BAFA02B31502FBB401B502B6FC01B70358
:10A4B000B8D3FD0002B9FE0002BAFF07B3D0F32AF9
:10A4C000C00EE502B4F402B5F502B6F603B7D1F753
:10A4D00002B8F80002B9F90002BAFA05B3D015CCF7
:10A4E0000F02FBB401B503B6D1FC01B702B8FD0001
:10A4F00003B9D2FE0002BAFF05B3D0F33FE602B4BF
:10A50000F402B5F503B6D1F602B7F702B8F80003C6
:10A51000B9D2F90002BAFA03B3A91F02FBB401B51C
:10A5200002B6FC01B703B8D3FD0002B9FE0002BABF
:10A53000FF05B3F3A13FE502B4F402B5F503B6D4C9
:10A54000F602B7F702B8F80002B9F90002BAFA0346
:10A55000B3A91F03D5FBB401B502B6FC01B702B81D
:10A56000FD0002B9FE0003BAD6FF05B3F3A13FE632
:10A5700002B4F402B5F502B6F602B7F702B8F80075
:10A5800003B9D7F90002BAFA03B3A91F02FBB40159
:10A59000B502B6FC01B703B8D8FD0002B9FE00024F
:10A5A000BAFF05B3F3A13FE502B4F402B5F503B673
:10A5B000D9F602B7F702B8F80002B9F90002BAFA00
:10A5C00003B3A91F03DAFBB401B502B6FC01B7025D
:10A5D000B8FD0002B9FE0003BADBFF08B3D7F3A150
:10A5E0003FCE07E603D4B4F403B5D1F503B6D0F6F5
:10A5F00002B7F702B8F80002B9F901D102BAFA03BA
:10A60000B3A91F02FBB401B502B6FC01B702B8FD45
:10A6100001D202B9FE0002BAFF05B3F3A13FE50281
:10A62000B4F402B5F502B6F603B7D3F702B8F800F2
:10A6300002B9F90002BAFA03B3A91F02FBB402B5CA
:10A64000D402B6FC01B702B8FD0002B9FE0002BA9E
:10A65000FF06B3D5F3A13FE602B4F402B5F502B6A6
:10A66000F602B7F702B8F80002B9F901D602BAFA51
:10A6700003B3A91F02FBB401B502B6FC01B702B8CF
:06A68000FD01D70000FF00
:00000001FF
