:10800000019F0000000000000000000000000000D0
:108010000000000000000000000000000000000060
:108020000000000000000000000000000000000050
:108030000000000000000000000000000000000040
:108040000000000000000000000000000000000030
:108050000000000000000000000000000000000020
:108060000000000000000000000000000000000010
:108070000000000000000000000000000000000000
:1080800000000000000000000000000000000000F0
:1080900000000000000000000000000000000000E0
:1080A0000000000000000000000000000000089335
:1080B000B3F28121A906E501F30002B49401F401B1
:1080C000950002B59601F501970002B69801F601F8
:1080D000990002B79A01F7019B000493B8831A0133
:1080E000F801940002B99501F901960002BA9701CE
:1080F000FA01980002BB9901FB019A0002BC9B01A6
:10810000FC039381160001BD0294FD00019501BEA0
:108110000296FE00019701BF0298FF00019900013D
:108120009A00019B0693B3831AA607000294B40039
:108130000195000296B5000197000693B38C18A430
:1081400008000294B4000195000296B50001970062
:108150000893B3F28116A607E401F30294B401F484
:108160000195000296B501F50197000298B601F657
:10817000019900029AB701F7019B000493B88F227E
:1081800001F800019401B90295F900019601BA02C3
:1081900097FA00019801BB0299FB00019A01BC0209
:1081A0009BFC000393871D01BD01FD019400029516
:1081B000BE01FE0196000297BF01FF0198000199E0
:1081C00000019A00019B0493B38F2200000294B433
:1081D000000195000296B5000693B38121A906001F
:1081E000000294B4000195000296B500019708932F
:1081F000B3F2871DA306E501F3000294B401F40174
:1082000095000296B501F50197000298B601F601B6
:108210009900029AB701F7019B000493B8842701E3
:10822000F801940002B99501F901960002BA97018C
:10823000FA01980002BB9901FB019A0002BC9B0164
:10824000FC03938C3A01BD019401FD019501BE012F
:108250009601FE019701BF0298FF00019900019A63
:1082600000019B000593B318A906000294B4000115
:1082700095000296B50001970693B38116A60700F4
:108280000294B4000195000296B50001970893B3DB
:10829000F28B13A906E401F30294B40002F49500F2
:1082A0000296B50002F597000298B60002F6990012
:1082B000029AB70002F79B000493B8831A0001F8F2
:1082C000019401B9019501F9019601BA019701FAEA
:1082D000019801BB019901FB019A01BC019B01FCC2
:1082E0000393812101BD019401FD019501BE019619
:1082F00001FE019701BF019801FF019900019A0059
:10830000019B0003938427000194000195000196CE
:1083100000019700019800019900019A00019B005B
:10832000019C000793B3D08121C00D02F3E5000248
:1083300094B401F40195000296B501F50297D100BD
:108340000298B601F6019900029AB701F7029BD292
:10835000000493B8831A01F801940002B99501F959
:108360000296D30002BA9701FA01980002BB990164
:10837000FB029AD40002BC9B01FC019C000493BD4B
:10838000811601FD0294D50002BE9501FE01960002
:1083900002BF9701FF0298D600019900019A0001DF
:1083A0009B00029CD70993B3D0831AA607CA0E007C
:1083B000000294B4000195000296B5000297D1091D
:1083C00093B3D08C18A408C71000000294B4000125
:1083D00095000296B5000297D10B93B3D0F28116A7
:1083E000A607CA0EE401F30294B401F40195000259
:1083F00096B501F5019701B3019801F602B4990011
:10840000019A01F702B59B00029CD10493F88F22D8
:1084100001B60194000295F901B7019601D20297C5
:10842000FA01B80198000299FB01B9019A01D3023F
:108430009BFC01BA019C0393871D01FD02BB9400C4
:108440000295D401FE02BC9600019701FF02BD987F
:10845000000299D50002BE9A00019B0002BF9C0554
:1084600093B3D08F2200000294B4000195000296CD
:10847000B5000297D10993B3D0802CA906C00D0096
:10848000000294B4000195000296B5000A93B3F27D
:10849000871DA306C50CE501F3000294B401F401A5
:1084A00095000296B501F50297D1000298B601F643
:1084B000019900029AB701F7029BD200029CB8040E
:1084C00093F88C1800019401B902F99501D3019633
:1084D00001BA02FA9700019801BB02FB9901D4018D
:1084E0009A01BC02FC9B00019C04BD938B1301FD0F
:1084F00001D5019401BE0295FE00019601BF0297CD
:10850000FF01D6019800019900019A00019B01D753
:108510000993B3D08C18A906C00D00000294B400D2
:108520000195000296B5000297D10793B3D081164A
:10853000A60700000294B4000195000296B500025F
:1085400097D10993B3D0F28B13A906E401F30294F7
:10855000B401F40195000296B501F5019701D1022D
:1085600098B601F6019900029AB707B3D0F7A607AB
:10857000CA0E019B01B4019C01F80893B3831AA4AD
:1085800008C710000294B401F90195000296B501E4
:10859000FA019701D10298B601FB019900029AB73E
:1085A00001FC019B01D2029CB80493FD81210001D2
:1085B0009401B90295FE0002D39601BA0297FF001A
:1085C000019801BB01990002D49A01BC019B0001F2
:1085D0009C01BD0993B3D08427A607CA0E0002945C
:1085E000B4000195000296B50001970893B3831A71
:1085F000A408C71000000294B4000195000296B5CB
:10860000000297D10B93B3D0F28C18AF04CC09E5DC
:1086100001F3000294B401F40195000296B501F54E
:108620000297D1000298B601F6019900029AB701AB
:10863000F7029BD2000493B8891001F8019400025C
:10864000B99501F90296D30002BA9701FA01980090
:1086500002BB9901FB029AD40002BC9B01FC019C65
:1086600003938B1301BD02FD9401D5019501BE0258
:10867000FE9600019701BF02FF9801D60199000103
:108680009A00019B00019C0993B3D08C18A805CFD8
:108690000A000294B4000195000296B50001970803
:1086A00093B3871DA306C50C00000294B400019586
:1086B000000296B5000297D10B93B3D0F28121A8A6
:1086C00005CF0AE401F30294B401F4019500029687
:1086D000B501F5019701D10298B601F601990002A2
:1086E0009AB701F7019B01D2029CB80493F8831A50
:1086F00000019401B90295F90002D39601BA0297DC
:10870000FA00019801BB0299FB0002D49A01BC0255
:108710009BFC00019C0493BD811601FD019401D5D1
:108720000295BE01FE0196000297BF01FF0198016C
:10873000D6019900019A00019B00019C0993B3D0D6
:108740008910A306C50C000294B40001950002969E
:10875000B500019705B3A805CF0A019801B40199A6
:1087600000019A01B5019B0002D19C01B60993B3A7
:10877000D0F212A306C50C01F30294B401F40695DD
:10878000B3A906C00D00019602B4F5019705B3A682
:1087900007CA0E019802B4F6019900019A02B5F7D2
:1087A000019B000493D18C1802B6F8019400019546
:1087B00002B7F901960002D29702B8FA01980001B7
:1087C0009902B9FB019A0002D39B02BAFC03938F72
:1087D0002200019402BBFD01950002D49602BCFE6A
:1087E000019703938C18000394BDFF00019501D5F8
:1087F0000296BE0001970393891201BF0194000203
:10880000D6950001960001970993B3D08C18A4085F
:10881000C710000294B4000195000296B5000197BC
:108820000993B3F28116A607CA0E01F30294B401AC
:10883000F40195000296B501F5019701D10298B6B1
:1088400001F6019900029AB701F7019B02D2930148
:10885000B801F80194000295B901F90296D300021B
:1088600097BA01FA0198000299BB01FB029AD40061
:10887000029BBC02FC9301B3000294B401FD02957B
:10888000D5000296B501FE0197000298B601FF02DD
:1088900099D600029AB700019B0393A40804B3D0B1
:1088A000C710000294B4000195000296B500049729
:1088B000B3A60702CA0E019801B4019900019A01FA
:1088C000B5019B049321A90604B3F3C00D000294E3
:1088D000B401F40195000296B501F50297D10002AA
:1088E00098B601F6019900029AB701F7029BD206E9
:1088F00093B3831AA10D0001F80294B4000195010D
:10890000F90396B5D3000497B3A00B01FA019801BF
:10891000B4019901FB029AD401B5019B07FC93B302
:108920008116A40800000294B401FD0295D500024E
:1089300096B501FE0497B3A00B00019802B4FF02A4
:1089400099D600019A01B5019B0993B3D0831AA669
:1089500007CA0E00000294B4000195000296B5000B
:108960000893B38C18A408C71000000294B4000147
:1089700095000296B5000993B3F28116A607CA0EB8
:1089800001F3000294B401F40195000296B501F5DB
:108990000297D1000298B601F6019900029AB70138
:1089A000F7029BD20693B38F22A00B0001F802942A
:1089B000B400019501F90396B5D3000497B3AC0850
:1089C00001FA019801B4019901FB029AD401B501A1
:1089D0009B07FC93B3871DA60700000294B401FD1A
:1089E0000295D5000296B501FE0497B3AC080001CC
:1089F0009802B4FF0299D600019A01B5019B079332
:108A0000B3D08F22A60700000294B40001950002A3
:108A100096B5000893B3802CA906C00D00000294FF
:108A2000B4000195000296B5000297D1000A93B3F5
:108A3000D0F2871DA306C50C01F3000294B401F423
:108A40000195000296B501F50297D1000298B60192
:108A5000F6019900029AB701F7029BD2000693B380
:108A60008C18A60C01F80294B400019501F9039644
:108A7000B5D300019704B3FAAD09019801B4019987
:108A800001FB029AD401B5019B01FC0693B38B1341
:108A9000A607000294B401FD0295D5000296B50127
:108AA000FE019703B3AD09019802FFB40299D60005
:108AB000019A01B5019B000993B3D08C18A906C097
:108AC0000D000294B4000195000296B500019704D0
:108AD00093B38116000294B4000195000296B5008C
:108AE00001970593B3F28B1301F30294B401F406DA
:108AF00095B3A607CA0E00019602B4F5019705B317
:108B0000A408C710019802B4F6019900019A02B5B1
:108B1000F7019B000493D1831A02B6F80194000177
:108B20009502B7F901960002D29702B8FA019800AF
:108B3000019902B9FB019A0002D39B02BAFC03938C
:108B4000812100000394BBFD00019501D40396BC74
:108B5000FE000197000398BDFF00019901D5029A1C
:108B6000BE00019B0993B3D08427A607CA0E00005C
:108B70000294B4000195000296B5000893B3831ADD
:108B8000A408C71000000294B4000195000296B535
:108B9000000993B3F28C18AF04CC0901F3000294DE
:108BA000B401F40195000296B501F50297D10002D7
:108BB00098B601F6019900029AB701F7029BD20616
:108BC00093B38910A4080001F80294B40001950140
:108BD000F90396B5D3000497B3A30601FA019801EF
:108BE000B4019901FB029AD401B5019B07FC93B330
:108BF0008B13AF0400000294B401FD0295D500026E
:108C000096B501FE0497B3A30600019802B4FF02D3
:108C100099D600019A01B5019B0993B3D08C18A88D
:108C200005CF0A00000294B4000195000296B50039
:108C30000893B3871DA306C50C00000294B400017D
:108C400095000296B5000297D10A93B3D0F2812124
:108C5000A805CF0A01F30294B401F401950002962D
:108C6000B501F5019701D10298B601F6019900020C
:108C70009AB701F7019B01D20693B3831AA00B01A7
:108C8000F80294B400019501F90296B501D3019759
:108C900004B3FAA408019801B4019901FB019A02F6
:108CA000D4B5019B01FC0693B38116A9060002947A
:108CB000B401FD019501D50296B501FE019703B3FC
:108CC000A408019802B4FF019901D6019A01B501E7
:108CD0009B000893B3D021A306C50C000294B400F6
:108CE0000195000296B500019705B3A805CF0A01CA
:108CF0009801B4019900019A01B5019B0002D19C31
:108D000001B60993B3D0F225A306C50C01F3029472
:108D1000B406B3F4A906C00D0195000596A607CACE
:108D20000E01F5019701B4019801F601990493B57C
:108D30008731000394D1F70002B695000296F8003F
:108D400002B797000398D2F9000593B3F28F22017E
:108D5000F3000294B401F4019501D30693B3873173
:108D6000A40801F50294B400019501F60293B30141
:108D7000D4000394B4F700019503B3A6070296F854
:108D8000000397B4D5019801F9000593B5F2812548
:108D900001F3019402F4B60295D6000296B301F5F0
:108DA000019701B4019801F60393B3D7000294B47C
:108DB00001F70195000296B501F802D897000298D4
:108DC000B601F90293F201F30294B701F402D995C6
:108DD000000493B8873101F50194000295B901F6BA
:108DE0000493DA8125000294BA01F70195000296F6
:108DF000BB01F802DB97000298BC01F90493F280F2
:108E00002C01F30294BD01F402DC95000296BE0130
:108E1000F50197000298BF01F605DD99B3A408009B
:108E2000019A01B402F79B00019302B5F801DE013B
:108E300094000395B6F90293B301F3000294B402CF
:108E4000DFF4019501B3019601F50297B400019892
:108E500003F693B300000294B401F7019500029663
:108E6000B301F80297B400019801F90399F2B50132
:108E7000F3019A04B3F4A607019B01B4019C01F528
:108E8000019D01B3019E01F6029FB4000001F701AC
:108E9000B500019301F801B60194000295F901B7FC
:108EA0000293F201F3019402B8F40195000796B31E
:108EB000D0A408C71001F5019701B4019801F6018B
:108EC000990293B5000394D1F70002B69500089675
:108ED000B3D0F8A607CA0E00019701B40298F900B2
:108EE000019901B5029AFA0993B3F28121A906C04A
:108EF0000D01F30294B401F40195000296B501F559
:108F0000019701D10298B601F6019900029AB701C2
:108F1000F7019B01D2029CB80493F8802C000194C5
:108F200001B90295F9000593D3F2812102F3BA0148
:108F30009401F4019501BB0796B3D0A607CA0E01B0
:108F4000F5019701B4019801F601990293B5000368
:108F500094D1F70002B695000896B3D0F8A408C7DC
:108F60001000019701B40298F90001990993B3F236
:108F7000802CA607CA0E01F30294B401F4019500F7
:108F80000296B501F5019701D10298B601F6019953
:108F900006B3D0A00BCF15019A02B4F7019B0001D4
:108FA0009C0393B5F800000294D102B6F901950034
:108FB0000493F2871D02F3B7019401F402D29501E4
:108FC000B8019601F5019701B9019801F60993B32B
:108FD000D0802CA607CA0E00000394B4F7000195B8
:108FE000000796B3F8A906C00D000297B4000298D6
:108FF000F9000993B3F28C3AA306C50C01F3000201
:1090000094B401F40195000296B501F50297D100E0
:109010000298B601F6019900029AB701F7029BD2B5
:109020000004B893873101F800019401B90295F961
:109030000593D3F2842701F301BA019401F4019559
:1090400001BB019602F5D4019701BC019801F60914
:1090500093B3D08C3AA906C00D00000394B4F70076
:109060000195000796B3F8A607CA0E000297B40050
:109070000298F9000299B5000993B3F28427A90672
:10908000C00D01F3000594A607CA0E01F401950175
:10909000B40696B3A408C71001F50297B401B30152
:1090A0009802F6B4019900019A02F7B5019B0002FB
:1090B0009CD103F893B60000019402F9B701950022
:1090C0000593D2F2831A02F3B8019401F4019501D9
:1090D000B9019601F502D39701BA019801F60199F9
:1090E0000993B3D08427A607CA0E000394B4F700EF
:1090F0000195000796B3F8A408C71000019701B4C2
:109100000298F90001990993B3F28731AF04CC09B1
:1091100001F30294B401F40195000296B501F50142
:109120009701D10298B601F6019900029AB701F7AA
:10913000019B01D2029CB80293F800019401B9028C
:1091400095F90005D393F2812102BAF3000194014D
:10915000F40295BB06B3D0A204C308019601F50240
:1091600097B400019801F60493B58731000294D1B9
:1091700001F702B695000796B3D0AF04CC0901F809
:10918000019701B4019801F901990993B3F2812182
:10919000A805CF0A01F30294B401F40195000296E8
:1091A000B501F5019701D10298B601F60393802C21
:1091B0000001B70294F7000295D20493B88121010F
:1091C000F800019401B90295F90393F21602D3F362
:1091D00001BA019401F4019501BB019601F50297D2
:1091E000D401BC019801F60893B3D021A306C50CA5
:1091F00000000394B4F7000195000796B3F8A906A0
:10920000C00D000297B4000298F9000299B5000958
:10921000FA93B38F22A306C50C01F201F30294B4B2
:1092200006B3F4A906C00D019501B40696B3A607CE
:10923000CA0E01F50297B400019801F60293B50039
:10924000000394D1F701B60195000493F88731012A
:10925000B700019402D2F90295B80793B3F28F22B6
:10926000A40801F3000294B401F4019505D393B36B
:10927000A6070001F50294B400019501F60296B329
:1092800001D40297B401F70198000293B501F801E7
:109290009401D50295B601F90793B3F2802CA40886
:1092A00001F3000294B401F40295D6000496B3A62B
:1092B0000701F50297B400019801F603D793B300B4
:1092C000000394B4F7000195000396B3F801D802A7
:1092D00097B4000298F9000393B5F201F3000294E9
:1092E000D902F4B60195000796B3D0A00BCF0A01BE
:1092F000F50297B400019801F60693B3AC08CB08C9
:1093000000000394B4F7000195000796B3F8A40891
:10931000C308000297B4019801F9000593B5F284DF
:109320002701F3019401D103F4B6950000019603DF
:10933000F5B79700019801D203F6B89902B3D001AE
:109340009A01B402F79B00019302B5F80001940161
:10935000D10295B602F99302B3F3000294B401F47A
:109360000295D2000496B3AC0801F50297B400014F
:109370009801F60593B3D3802C000294B401F70151
:1093800095000296B301F80297D401B4019801F94F
:109390000393873102B5F300019402F4D50295B628
:1093A000000496B3AD0901F50297B400019802F6E6
:1093B000D60299B300029AB401F7019B000293B55B
:1093C00002F8D700019401B60295F9000A93B3D0D0
:1093D000F2802CA00BCF0A01F30294B401F40195A2
:1093E000000296B501F5019701D10298B601F60188
:1093F000990793B3D0AC08CB08000394B4F70001ED
:1094000095000696B3A607C50701F8019701B402B7
:1094100098F900019901B5029AFA0493D1842701C1
:10942000F301B6019401F4019501B70796B3D0A4F6
:1094300008C30801F50297B400019801F60299B338
:1094400000019A02B4F7019B00019C0793B3F8A0B6
:109450000BCF0A000294B40002F995000893B38080
:109460002CA408CC0901F3000294B401F401950086
:109470000496B3AC0801F50397B4D100019801F646
:109480000293B300000394B4F701D2019501B30233
:1094900096F8000297B4000298F901D30593B5F24B
:1094A000873101F3019401F402B695000496B3AD3F
:1094B0000902D4F5019701B4019801F6019901B3AD
:1094C000019A03B4D5F7019B00019C0393B5F80002
:1094D00000019403B6D6F90195000A93B3D0F28047
:1094E0002CA00BCF0A01F30294B401F401950006FD
:1094F00096B3AC08CB0801F5019701B4019801F6C9
:1095000001990293B5000394D1F70002B6950008C3
:1095100096B3D0F8A408C30800019701B40298F9E3
:109520000001990593B5F2812101F30294D101F470
:1095300002B69500019603B3D0F5019701B40198E6
:1095400001F601990493B58C3A0001F70294D10118
:10955000B6019501F80796B3D0A607C50700029794
:10956000B401F90198000393B5F201F3000294D11C
:1095700002F4B60195000796B3D0A408C30801F51C
:109580000297B400019801F60893B3802CAC08CB85
:109590000800000394B4F7000195000796B3F8A4FF
:1095A00008C308000297B4000298F9000593B5F2C9
:1095B000853401F3000294D102F4B60195000396BC
:1095C000B3D001F50297B400019801F60293B500FB
:1095D000000394D1F701B60195000896B3D0F8A620
:1095E00007C507000297B4000298F9000593B5F289
:1095F000873101F3000294D102F4B6019500079679
:10960000B3D0A00BCF0A01F50297B400019801F680
:109610000293B300000394B4F7000195000396B3DE
:10962000F8000297B4000298F9000299B50005FA13
:1096300093B3802C02D1F201F30294B401F40195AA
:10964000000296B501F50297D2000298B604B3F66F
:10965000A408019900029AB401F7029BD301930177
:10966000B501F80194000295B601F90693B3D4F25E
:10967000AC0801F30294B401F40195000296B30121
:10968000F502D59701B4019801F60393811601B54F
:10969000000294F701D60295B603B3AD090296F81D
:1096A000000297B4000298F905D793F2802C02B516
:1096B000F300019401F40295B601B3019602D8F5C6
:1096C0000297B400019804F6B3AC08019900029A1D
:1096D000B402D9F7019B000293B501F8019400028E
:1096E000B69502DAF90893B3D0F28116A00B01F314
:1096F000000294B401F40195000696B3AC08CB08BF
:1097000001F50297B400019801F60493B5802C008E
:10971000000394D1F701B60195000896B3D0F8A4E0
:1097200008C308000297B4000298F9000593B5F247
:10973000842701F3000294D102F4B6019500039648
:10974000B3D001F50297B400019801F60699B3ADC4
:1097500009CC0900019A02B4F7019B00019C03B5F2
:10976000F8930001D1019402B6F901950793B3F281
:10977000802CA40801F3000294B402F4D2019500F5
:109780000496B3AC0801F50297B400019802F6D331
:109790000293B300000394B4F700019501B303965C
:1097A000F8D4000297B4000298F9000593B5F28747
:1097B0003101F30294D501F402B695000496B3ADDD
:1097C0000901F5019701B40298D601F6019901B398
:1097D000019A02B4F7019B00029CD70493B3D0F81E
:1097E00000000294B401F90195000993B3F2802CB2
:1097F000A607C50701F30294B401F401950002968F
:10980000B501F5019701D10298B601F601990793C8
:10981000B3D0A408C308000394B4F7000195000373
:1098200096B3F800019701B40298F900019901B5C7
:10983000029AFA0593D1F2842701F301B60194014B
:10984000F4019501B70396B3D001F50297B4000176
:109850009801F60699B3AD09CC0900019A02B4F754
:10986000019B00019C0393B5F8000294D10003B65C
:10987000F995000793B3F2802CA40801F300029439
:10988000B402F4D20195000496B3AC0801F5029736
:10989000B400019802F6D30293B300000394B4F726
:1098A000000195000496B3F8D4000297B401980122
:1098B000F901990593B5F2873101F301D5019403BC
:1098C000F4B69500000496B3AD0902F59701B40211
:1098D000D6980002F69901B3019A01B402F79B00F1
:1098E00002D79C019302B5F800019401B602F995E4
:1098F000000A93B3D0F2802CA00BCF0A01F302949C
:10990000B40002F495000296AC05B3F508CB08014B
:109910009701B4019801F601990493B58C3A0003BC
:1099200094D1F70002B695000496B3A40804D0F8C9
:10993000C308019701B40298F90001990393B5F2A5
:1099400001F30294D101F402B695000396B3D0015D
:10995000F5019701B4019801F601990293B500034E
:1099600094D1F70002B695000493B3A60704D0F88B
:10997000C507000294B401F90195000393B5F20103
:10998000F30294D101F402B695000796B3D0A4086F
:10999000C30801F5019701B4019801F601990893F4
:1099A000B3802CAC08CB08000394B4F700019500F9
:1099B0000696B3A408C30801F8019701B40298F908
:1099C0000001990593B5F2853401F30294D101F4B5
:1099D00002B695000396B3D001F5019701B4019842
:1099E00001F601990293B5000394D1F70002B695F0
:1099F000000296F806B3D0A607C507019701B40286
:109A000098F90001990593B5F2873101F3000294AA
:109A1000D102F4B60195000796B3D0A00BCF0A018E
:109A2000F50297B400019801F60293B30000039485
:109A3000B4F7000195000396B3F8000297B4000252
:109A400098F9000299B5000593B3F2802C02D1F386
:109A50000294B401F40195000296B501F501970155
:109A6000D20298B601F60499B3A40800019A02B490
:109A7000F7019B01D3019C0393B5F8000194000307
:109A8000B695F9000893B3D4F28116AC0801F3023D
:109A900094B401F40195000296B301F502D5970143
:109AA000B4019801F60393802C01B5000294F701EC
:109AB000D60295B603D0CC090296F8000297B700FB
:109AC0000298F9000299B8000893B3F2D1820DAD63
:109AD0000901F30294B401F401950002B39601F573
:109AE0000397B4D200019801F60493B581160000E3
:109AF0000294F702B6D30195000493F8802C01B7C5
:109B00000194000295F902B8D40593B3F2AC0801B0
:109B1000F3000294B401F40195000796B3D0A00BB2
:109B2000CF0A01F50297B400019801F60693B3AC91
:109B300008CB0800000394B4F7000195000796B322
:109B4000F8A607C507000297B4000298F90005932C
:109B5000B5F2812501F3000294D102F4B60195001B
:109B6000019602F5B70197000298D202F6B8019962
:109B700006B3D0A408C308019A02F7B4019B000100
:109B80009C03F893B500000294D102F9B601950048
:109B90000493F2873102F3B7019401F402D29501E4
:109BA000B8019601F5019701B9019801F602D39920
:109BB0000493BA8125000294F7000295BB00029637
:109BC000F801D40297BC000298F9000299BD0793EE
:109BD000B3F28929A60A01F303D594B404B3F4A41B
:109BE00009019501B4019601F5019701B502D698D6
:109BF00001F601990493B38125000394B4F70001A1
:109C00009501D70396B5F8000197000398B6F900BF
:109C100001990893B3D8F28929A60A01F30294B4F2
:109C200004B3F4A409019501B4019601F502D99792
:109C300001B5019801F601990493B38125000394BD
:109C4000B4F701DA0195000396B5F8000197000317
:109C500098B6F901DB01990493F2802C02F3B70165
:109C60009401F4019501B805DC96B3A00B01F50150
:109C70009701B4019801F6019901B302DD9A02B48B
:109C8000F7019B00019C0393B5F800000294DE02EB
:109C9000B6F90195000593B3F2873101F30294B44C
:109CA00001F402DF95000296B301F5019701B401BA
:109CB0009801F601990493B5802C000294F70002F4
:109CC000B695000396B3F800019701B40298F90025
:109CD000019901B5029AFA0793B3F28731A60C01F4
:109CE000F30294B403B3A00B02F4950002B49600FF
:109CF00002F5970002B5980002F6990493B3802C00
:109D0000000294B401F70195000296B501F801979D
:109D1000000298B601F901990793B3F28731A60CB6
:109D200001F30294B404B3F4A00B01950002B496BD
:109D300001F501970002B59801F601990493B380EB
:109D40002C000394B4F7000195000396B5F80001C8
:109D500097000398B6F90001990493F2812502F364
:109D6000B7019401F4019501B80496B3AC0801F56C
:109D7000019701B4019801F6019901B3019A02B467
:109D8000F7019B00019C0393B5F800019400039533
:109D9000B6F90001960593B3F2873101F30294B44A
:109DA00001F40195000296B301F5019701B4019801
:109DB00001F601990493B58125000294F70002B6DB
:109DC00095000396B3F800019701B40298F90001D9
:109DD000990793B3F28929A60A01F30294B404B354
:109DE000F4A409019501B4019601F5019701B501AB
:109DF0009801F601990493B38125000394B4F70008
:109E00000195000396B5F8000197000398B6F90094
:109E100001990793B3F28929A60A01F30294B404C5
:109E2000B3F4A409019501B4019601F5019701B5B8
:109E3000019801F601990493B38125000394B4F7C6
:109E4000000195000396B5F8000197000398B6F954
:109E50000001990493F2802C02F3B7019401F401FC
:109E60009501B80496B3A00B01F5019701B40198D0
:109E700001F6019901B3019A02B4F7019B00019C1C
:109E80000393B5F80001940003B6F995000005931B
:109E9000B3F38731000294B401F40195000296B344
:109EA00001F50297B400019801F60393802C01B5E7
:109EB000000294F701B60195000396B3F8000297EB
:109EC000B4000298F9000299B500029AFA0793B318
:109ED000F28731A60C01F30294B404B3F4A00B0191
:109EE0009501B4019601F5019701B5019801F601BC
:109EF000990493B3802C000394B4F70001950002F9
:109F000093B301F8000294B401F90195000396B5EA
:109F1000F201F3019701F40298B6000399B3CF035D
:109F2000D0F50A019A01B4019B01F6019C05B3AC7E
:109F300008CB08019D02B4F7019E00019F05B3A460
:109F400008C30801F80001B401F900000593B5F257
:109F5000842701F30294D101F402B6950001960121
:109F6000F502B797000298D201F602B8990393B3AD
:109F7000D0000394B4F7000195000696B3A00BCF70
:109F80000A01F8019701B40298F900019906B3F2A9
:109F9000AD09CC0902F39A01B4029BF400019C06BE
:109FA00093B3802CA60701F5000394B4D100029569
:109FB000F6000293B3000394B4F70002D2950003B5
:109FC00096B5F8000197000398B6F90002D39907F7
:109FD00093B3F28731A40801F3000294B401F401B1
:109FE00095000396B3D401F50297B400019801F6E9
:109FF0000293B30001D50394B4F7000195000396D2
:10A00000B5F800019701D60398B6F9000899B3D0C6
:10A01000F2A00BCF0A01F3019A01B4029BF40003F2
:10A0200093802C01B501F50294D1000295B608F693
:10A0300093B3D0AC08CB0800000294B401F70195AB
:10A04000000696B3A607C50701F80297B400019869
:10A0500001F90593B5F2842701F3000294D102F4CB
:10A06000B60195000796B3D0A408C30801F502977E
:10A07000B400019801F60293B500000394D1F701F2
:10A08000B60195000896B3D0F8A607C50700029759
:10A09000B4000298F9000399B5F201F3019A01D1D5
:10A0A000039BF4B600019C0793B3D0A408C3080136
:10A0B000F50294B400019501F60693B3AD09CC09FD
:10A0C00000000394B4F7000195000396B5F8000270
:10A0D00097D1000398B6F900019900039AB7FA00E6
:10A0E0000893B3D2F28731A40801F3000294B401BB
:10A0F000F40195000296B302F5D30297B4000198DB
:10A1000001F60293B300000494B4F7D40001950063
:10A110000396B5F8000197000498B6F9D5000899A0
:10A12000B3D0F2A00BCF0A01F3029AB401F4019B61
:10A13000000893B3802CAC08CB0801F5000294B45E
:10A14000000295F6000293B5000394D1F70002B621
:10A1500095000896B3D0F8A408C30800019701B48D
:10A160000298F90001990593B5F2812101F3029457
:10A17000D101F402B695000396B3D001F501970121
:10A18000B4019801F603938C3A01B5000394D1F71A
:10A19000000295B6000896B3D0F8A607C5070002DE
:10A1A00097B4000298F9000393B5F201F30002940A
:10A1B000D102F4B60195000796B3D0A408C30801F4
:10A1C000F50297B400019801F60699B3AC08CB08E4
:10A1D00000019A02B4F7019B00019C0993B3F88532
:10A1E00034A408C308000294B40002F99500039651
:10A1F000B5F201F3019701D103F498B60001990279
:10A20000B3D002F59A01B4019B0002F69C0293B50B
:10A2100000019402D1F70295B6000796B3D0A607C5
:10A22000C50701F8019701B4019801F90199059357
:10A23000B5F2873101F30294D101F402B69500071B
:10A2400096B3D0A408C30801F5019701B4019801A1
:10A25000F601990293B3000394B4F7000195000747
:10A2600096B3F8A607C50700019701B40298F90054
:10A27000019901B5029AFA0593F2D1802C01F302FB
:10A28000B69401F401950002B79601F50297D20049
:10A2900002B89801F60493B3AD09000294B401F733
:10A2A0000295D3000296B501F80197000298B60115
:10A2B000F904B3F299D401F3029AB401F4019B00BA
:10A2C0000293B501F50294D5000295B601F602930A
:10A2D000B3000294B401F70295D6000296B501F8D6
:10A2E0000197000298B601F90693B3F2D7A60701C9
:10A2F000F30294B401F40195000796B3D0A906C8FF
:10A300000601F5019704A607C507019801F602B4F6
:10A31000990693B3A408C308000394B4F705B3A641
:10A3200007C507019501B40296F800019701B5022F
:10A3300098F9000993B3F28C3AA00BCF0A01F3000D
:10A340000294B401F40195000696B3AC08CB080161
:10A35000F50297B400019801F60493B5802C000033
:10A360000394D1F701B6019506B3D0A408C308023F
:10A3700096F8000297B4000298F9000299B500051A
:10A3800093F2D1842701F302B69401F401950002FF
:10A39000B79601F50297D20002B89801F603B3D040
:10A3A0009900029AB401F7019B000693B3A00BCF6A
:10A3B0000A01F80294B400019501F90793B3F2ADD4
:10A3C00009CC0901F30294B401F40195000296B599
:10A3D00001F5019701D10298B601F60693B3802CDE
:10A3E000A607000294B401F7019501D202B39601C9
:10A3F000F80297B400019801F90593F2B58731028C
:10A40000D3F3019401F40295B60004B396A40801B5
:10A41000F50297B401D4019801F60299B300019AAC
:10A4200002B4F7019B01D50293B501F80194000134
:10A430009502B6F90A93B3D0F2802CA00BCF0A0193
:10A44000F30294B401F4019500000796B3F5AC084B
:10A45000CB08019701B401980002F6990293B50068
:10A460000294D101F702B6950008B3D096F8A4087B
:10A47000C308000297B4000298F9000299B50003DE
:10A4800093842702D1F301B6019401F4019501B739
:10A49000019601F50297D201B8019802F6B302D0F5
:10A4A0009900029AB401F7019B0493B3A00B02CF69
:10A4B0000A01F80294B400019505F993B3AD0903BC
:10A4C000F3CC09000294B401F40195000296B501A1
:10A4D000F50297D1000298B607F693B3802CA60731
:10A4E00000000294B401F70295D201B3019601F87D
:10A4F0000297B400019801F90693B5F2D3873101B0
:10A50000F3019401F402B6950004B396A40801F592
:10A510000397B4D400019801F60299B300019A029E
:10A52000B4F7029BD500019302B5F8000194000333
:10A5300095B6F90993B3D0802CA00BCF0A01F30094
:10A540000294B401F40195000696B3AC08CB08015F
:10A55000F50297B400019801F60293B50000039448
:10A56000D1F701B6019506B3D0A408C3080296F846
:10A57000000297B4000298F9000299B5000693B35F
:10A58000D1F2A00B01F3000294B401F40195000292
:10A5900096B502F5D20197000298B601F60499B378
:10A5A000A40800019A03B4F7D3019B00019C039314
:10A5B000B5F80001940004B6F995D4000793B3F2FE
:10A5C0008116AC0801F3000294B401F4019501D5A1
:10A5D0000296B301F50297B400019801F60493B511
:10A5E000802C01D6000294F701B60195000296F87E
:10A5F00001B70297D7000298F901B80593B3F2A00A
:10A600000B01F3000294B402F4D80195000296B550
:10A6100001F50197000298B602F6D901930001B73F
:10A620000894F7B3D0AD09CC0900019501B40796A1
:10A63000B3F8A00BCF0A000297B405B3A60CC50C63
:10A640000298F901B40993B3F28C3AA00BCF0A0136
:10A65000F3000294B401F40195000296B501F502ED
:10A6600097D1000298B601F60993B3D0802CAD09BA
:10A67000CC0900000394B4F7000195000396B5F8E7
:10A68000000297D1000398B6F9000793B3F28C3A11
:10A69000A90601F3000294B402F4D20195000296D7
:10A6A000B501F50197000298B602F6D301990002B0
:10A6B0009AB701F7019B00029CB805F893D4802C4F
:10A6C00000000294B901F90195000593BAF28121C5
:10A6D00002F3D5019401F402BB9500019601F50245
:10A6E000BC9701D6019801F602BD990693B3802C60
:10A6F000A306000394B4F7000295D7000596B3F8BB
:10A70000A60700019701B40298F9000299D80393B3
:10A71000B5F201F3019401F402B69500019602D955
:10A72000F502B79700019801F602B89900019A0264
:10A73000DAF702B99B00019C0293F801BA00019478
:10A7400002DBF90295BB000493F2871D01F302BC02
:10A750009401F4019501DC0296B301F5019701B46F
:10A76000019801F601990793B3DD8121A906000341
:10A7700094B4F7000195000596B3F8A3060002977C
:10A78000DE01B40298F900019901B5029AFA049326
:10A79000F2871D02DFF301B6019401F4019501B7C0
:10A7A000019601F5019701B8019801F6019901B9E7
:10A7B000019A01F7019B01BA019C0293F80002BBC8
:10A7C000940002F9950005BC93F2842701F300017F
:10A7D0009402BDF4019500019602BEF501970001B7
:10A7E0009802BFF60693B38C3AA80500000394B410
:10A7F000F7000195000596B3F8A906000297B4008A
:10A800000298F9000593B5F2842701F30001940240
:10A81000F4B6019500019602F5B701970001980280
:10A82000F6B8019900019A02F7B9019B00019C0258
:10A83000F8BA0393812100019402F9BB0195000449
:10A8400093F2831A02BCF300019401F40295BD0057
:10A850000496B3A60701F50297B400019801F60625
:10A8600093B38427A40800000394B4F70001950073
:10A870000596B3F8AF04000297B4000298F90005FA
:10A8800093B5F2873101F300019402F4B60195000B
:10A89000019602F5B7019700019802F6B8019900F8
:10A8A000019A02F7B9019B00019C0393F8BA0001D9
:10A8B000940003F995BB000493F2812101F301BCDC
:10A8C000019401F4019501BD0496B3A80501F502B8
:10A8D00097B400019801F60693B38731A3060000F0
:10A8E0000394B4F7000195000596B3F8A80500029B
:10A8F00097B4000298F9000593B5F28C3A01F30081
:10A90000019402F4B6019500019602F5B701970093
:10A91000019802F6B8019900019A02F7B9019B006B
:10A92000019C0393F8BA0001940003F995BB00045D
:10A9300093F2802C01F301BC019401F4019501BD57
:10A940000496B3A30601F50297B400019801F60638
:10A9500093B38121A90600000394B4F70001950088
:10A960000596B3F8A607000297B4000298F9000212
:10A9700099B5000393F22501F301B6019401F401A6
:10A980009501B7019601F5019701B8019801F6010B
:10A990009901B9019A01F7019B0293BA0001F801EC
:10A9A0009401BB01950493F28C1801F301BC01944E
:10A9B00001F4019503B3A306019601F50297B400D3
:10A9C000019807F693B38125A90600000294B4010B
:10A9D000F7019503B3A607019601F80297B40001A9
:10A9E000980493F2802C02B5F300019401F40295CF
:10A9F000B600019601F50297B700019802F6990199
:10AA0000B800019A02F79B01B901930002F8940182
:10AA1000BA01950001F90593BBF2811601F3019487
:10AA200002F4BC01950005B3D096AF0401F502977E
:10AA3000B400019803F6802C0693B3A805CF0A0052
:10AA40000294B401F701950006B396A306C50C0164
:10AA5000F80297B400019801F90299B5000993B37F
:10AA6000F28121A906C00D01F30294B401F401950D
:10AA7000000296B501F5019701D10298B601F601E1
:10AA80009900029AB70002F79B01D20393802C022F
:10AA9000B8F800019401B90295F9000593D3F28149
:10AAA0002102F3BA019401F4019501BB0496B3A607
:10AAB0000704D0F5CA0E019701B4019801F6019977
:10AAC0000293B5000394D1F70002B6950008B3D005
:10AAD00096F8A408C710000297B4000298F900077E
:10AAE00093B3802CA607CA02F30E000294B401F4BB
:10AAF0000195000296B501F50297D1000298B601C2
:10AB0000F6019906B3D0A00BCF15019A02F7B40154
:10AB10009B00019C03F893B500000294D102F9B6A2
:10AB20000195000493F2871D02F3B7019401F4022A
:10AB3000D29501B8019601F5019701B9019801F686
:10AB40000993B3D0802CA607CA0E00000394B4F773
:10AB5000000195000796B3F8A906C00D000297B44E
:10AB6000000298F9000993B3F28C3AA306C50C01D0
:10AB7000F3000294B401F40195000296B501F502C8
:10AB800097D1000298B601F6019900029AB701F731
:10AB9000029BD2000493B8873101F801940002B9F6
:10ABA0009501F90593D3F2842701F301BA019401C9
:10ABB000F4019501BB019602F5D4019701BC0198FF
:10ABC00001F60993B3D08C3AA906C00D000294B4E3
:10ABD00001F70195000696B3A607CA0E01F8019782
:10ABE00001B4019801F9019901B5019A0993B3F2F1
:10ABF0008427A906C00D01F3000594A607CA0E011B
:10AC0000F4019501B40696B3A408C71001F50297A4
:10AC1000B401B3019802F6B4019900019A02F7B5A4
:10AC2000019B00029CD10393F8B60001940003F944
:10AC300095B7000493F2831A02D2F301B80194018C
:10AC4000F4019501B9019601F50297D301BA019873
:10AC50000AF693B3D08427A607CA0E00000294B464
:10AC600001F70195000696B3A408C71001F80297F2
:10AC7000B400019801F90993B3F28731AF04CC090C
:10AC800001F3000294B401F40195000296B501F5B8
:10AC90000297D1000298B601F6019900029AB70115
:10ACA000F7029BD20002B89301F800019401B902A7
:10ACB00095F90593D3F2812101F301BA019401F4CE
:10ACC000019506B3D0A204C308019601F50297B41A
:10ACD00000019801F60493B58731000294D101F781
:10ACE00002B695000796B3D0AF04CC0901F80197DE
:10ACF00001B4019801F901990993B3F28121A805E2
:10AD0000CF0A01F30294B401F40195000296B50153
:10AD1000F5019701D10298B601F60393802C00014A
:10AD2000B70294F7000295D20493B8812101F8008C
:10AD3000019401B90295F90393F21602D3F301BA13
:10AD4000019401F4019501BB019601F50297D4012C
:10AD5000BC019809F693B3D021A306C50C000002EC
:10AD600094B401F70195000696B3A906C00D01F849
:10AD70000297B400019801F90299B500019A09936C
:10AD8000B3F28F22A306C50C01F30294B406B3F408
:10AD9000A906C00D019501B40696B3A607CA0E0117
:10ADA000F5019701B4019801F601990293B50003EA
:10ADB00094D1F70002B695000296F803938731010B
:10ADC000B7019402D2F9019501B80793B3F28F222B
:10ADD000A40801F30294B401F4019501D30493B3E0
:10ADE000A60701F5000294B4000295F601B302969D
:10ADF000D4000397B4F7000198019302B5F800025C
:10AE000094D5000395B6F90793B3F2802CA40801FA
:10AE1000F3000294B401F40295D6000496B3A60799
:10AE200001F50297B400019801F60393B3D700022D
:10AE300094B401F70195000296B301F80297D80186
:10AE4000B4019801F901990393B5F201F301940259
:10AE5000D9F402B695000796B3D0A00BCF0A01F53E
:10AE6000019701B4019801F601990693B3AC08CBA0
:10AE700008000394B4F7000195000796B3F8A408FE
:10AE8000C30800019701B40298F90001990593B530
:10AE9000F2842701F30294D101F402B695000196E1
:10AEA00001F502B797000298D201F602B89902B3F1
:10AEB000D0019A02B4F7019B00019C0393B5F800FE
:10AEC000019401D10395B6F9000393B3F201F302A3
:10AED00094B401F4019501D20496B3AC0801F501D4
:10AEE0009701B4019801F60493B3802C01D30003B9
:10AEF00094B4F7000195000396B3F8000397D4B417
:10AF0000000298F9000593F2B5873101F30194012D
:10AF1000F403D595B6000496B3AD0901F501970188
:10AF2000B4019801F602D69901B3019A02B4F7016F
:10AF30009B00019C0393B5F801D700019402B6F978
:10AF40000195000A93B3D0F2802CA00BCF0A01F335
:10AF50000294B401F40195000296B501F501970140
:10AF6000D10298B601F601990793B3D0AC08CB088B
:10AF7000000394B4F70001950007B396F8A607C53F
:10AF800007000297B4000298F9000299B500029AEE
:10AF9000FA0593D1F2842702F3B6019401F40195E6
:10AFA00001B70796B3D0A408C30801F5019701B40F
:10AFB000019801F6019901B3019A02B4F7019B00CF
:10AFC000019C0793B3F8A00BCF0A00000294B401D0
:10AFD000F90195000993B3F2802CA408CC0901F380
:10AFE0000294B401F40195000496B3AC0801F50194
:10AFF0009702B4D1019801F601990293B30003942A
:10B00000B4F701D201950003B396F8000297B4009B
:10B010000298F90006D393B5F2873101F301940148
:10B02000F402B69500019605B3D4F5AD0901970178
:10B03000B401980002F69901B3019A02B4D502F75F
:10B040009B00019C0293B501F800019403B6D6F968
:10B050000195000A93B3D0F2802CA00BCF0A01F324
:10B060000294B401F40195000496B3AC0803F5CB47
:10B0700008019701B4019801F601990293B5000304
:10B0800094D1F70002B695000496B3A40804D0F852
:10B09000C308019701B40298F90001990593B5F22C
:10B0A000812101F30294D101F402B69500019603C7
:10B0B000B3D0F5019701B4019801F601990493B555
:10B0C0008C3A0001F70294D101B6019501F8079678
:10B0D000B3D0A607C507000297B401F90198000391
:10B0E00093B5F201F3000294D102F4B60195000782
:10B0F00096B3D0A408C30801F50297B400019801E3
:10B10000F60893B3802CAC08CB0800000394B4F786
:10B11000000195000796B3F8A408C308000297B48D
:10B12000000298F9000593B5F2853401F30002940A
:10B13000D102F4B60195000396B3D001F50297B49D
:10B1400000019801F60293B500000394D1F701B60F
:10B150000195000896B3D0F8A607C507000297B47A
:10B16000000298F9000593B5F2873101F3000294CB
:10B17000D102F4B60195000796B3D0A00BCF0A0117
:10B18000F50297B400019801F60293B3000003940E
:10B19000B4F7000195000396B3F8000297B40002DB
:10B1A00098F9000299B500029AFA0693B3D1F28099
:10B1B0002C01F30294B401F40195000296B501F557
:10B1C00002D297000298B601F60499B3A4080001D0
:10B1D0009A02B4F702D39B00019C0393B5F80001D7
:10B1E000940003B695F901D40593B3F2AC0801F3CA
:10B1F0000294B401F401950002B39602D5F50297CA
:10B20000B400019801F60493B5811600019402D6AA
:10B21000F70295B6000496B3AD0901F8019701B4A1
:10B22000019802D7F90493F2802C02B5F30001943F
:10B2300001F40295B601B30296D801F50297B40065
:10B24000019804F6B3AC08019900039AB4D901F748
:10B25000019B000293B501F801940003B6DA950151
:10B26000F90893B3D0F28116A00B01F3000294B455
:10B2700001F40195000696B3AC08CB0801F50297DE
:10B28000B400019801F60493B5802C00000394D11A
:10B29000F701B60195000896B3D0F8A408C30800DA
:10B2A0000297B4000298F9000593B5F2842701F3E0
:10B2B000000294D102F4B60195000396B3D001F5D3
:10B2C0000297B400019801F60699B3AD09CC0900C4
:10B2D000019A02B4F7019B00019C03B5F8930001A9
:10B2E000D1019402B6F901950793B3F2802CA4081A
:10B2F00001F3000294B402F4D20195000496B3ACB9
:10B300000801F50297B400019802F6D30293B30046
:10B310000294B401F701950002B39602F8D40297A3
:10B32000B400019801F90593B5F2873101F30002E9
:10B3300094D502F4B60195000496B3AD0901F50267
:10B3400097B4000298D601F60299B300019A02B4AC
:10B35000F7019B00029CD70493B3D0F8000294B489
:10B360000002F995000993B3F2802CA607C50701E6
:10B37000F3000294B401F40195000296B501F502C0
:10B3800097D1000298B601F60793B3D0A408C3087A
:10B3900000000394B4F7000195000396B3F800028F
:10B3A00097B4000298F9000299B500029AFA05D103
:10B3B00093F2842702B6F300019401F40295B702D8
:10B3C000B3D0019601F50297B400019801F60699F1
:10B3D000B3AD09CC0900029AB401F7019B000293B6
:10B3E000B501F8000294D101B60295F9000793B3B4
:10B3F000F2802CA40801F30294B401F402D2950067
:10B400000496B3AC0801F5019701B4019801F60266
:10B41000D3990293B3000394B4F700019500039607
:10B42000B3F801D4019701B40298F900019905938A
:10B43000B5F2873101F302D59401F402B695000408
:10B4400096B3AD0901F5019701B402D69801F60152
:10B450009901B3019A02B4F7019B0002D79C0393B0
:10B46000B5F80000019402B6F90195000A93B3D033
:10B47000F2802CA00BCF0A01F30294B401F40195E1
:10B48000000296B506B3F5AC08CB08019701B401EC
:10B490009801F601990493B58C3A0001F70294D112
:10B4A00001B6019501F80796B3D0A408C3080002BD
:10B4B00097B401F90198000393B5F201F3000294E7
:10B4C000D102F4B60195000396B3D001F50297B40A
:10B4D00000019801F60293B500000394D1F701B67C
:10B4E0000195000893B3D0F8A607C507000294B4ED
:10B4F0000002F995000393B5F201F3000294D10222
:10B50000F4B60195000796B3D0A408C30801F5026C
:10B5100097B400019801F60893B3802CAC08CB08CF
:10B5200000000394B4F7000195000796B3F8A4084F
:10B53000C308000297B4000298F9000593B5F2859C
:10B540003401F3000294D102F4B60195000396B3DE
:10B55000D001F50297B400019801F60293B50000FE
:10B560000394D1F701B60195000896B3D0F8A60769
:10B57000C507000297B4000298F9000593B5F28759
:10B580003101F3000294D102F4B6019506B3D0A0C4
:10B590000BCF0A019601F50297B400019801F6025B
:10B5A00093B3000294B401F70195000296B301F839
:10B5B000019701B4019801F9019901B50593B3F21E
:10B5C000802C02D1F3019401B402F495000002969C
:10B5D000B502F59701D20298B60002F69903B3A41A
:10B5E00008019A01B402F79B01D3019C0393B5F8BB
:10B5F000000194000395B6F9000893B3D4F28116C4
:10B60000AC0801F30294B401F4019500019602B371
:10B61000F502D59701B4019801F60393802C01B58A
:10B6200000019402F7D60295B60005D096F8CC0931
:10B63000000297B7000298F9000299B8000893B386
:10B64000F2D1820DAD0901F30294B401F401950029
:10B650000296B301F50297D201B4019801F601995F
:10B660000493B58116000294F701D302B695000346
:10B6700093802C01F801B7019401F90295D401B827
:10B680000593B3F2AC0801F30294B401F401950000
:10B690000796B3D0A00BCF0A01F5019701B401982A
:10B6A00001F601990693B3AC08CB08000394B4F7F4
:10B6B000000195000696B3A607C50701F80197019A
:10B6C000B40298F90001990593B5F2812501F302BE
:10B6D00094D101F402B69500019601F502B79700E6
:10B6E0000298D201F602B89906B3D0A408C30801A3
:10B6F0009A01F702B49B00019C01F80293B5000285
:10B7000094D101F902B695000493F2873101F30157
:10B71000B7019402F4D2019501B8019601F50197A1
:10B7200001B9019802F6D30393812501BA0002946E
:10B73000F7000295BB000396F8D4000297BC000204
:10B7400098F9000793B3F28929A60A01F301D503FA
:10B7500094A40901F4019501B4019601F501970241
:10B76000B5D6019801F60493B3812500000394B483
:10B77000F7000295D7000396B5F8000197000398EB
:10B78000B6F9000893B3D8F28929A60A01F3000399
:10B7900094A40901F4019501B4019602F5D9019729
:10B7A00001B5019801F60493B3812500000494B417
:10B7B000F7DA000195000396B5F8000197000498A8
:10B7C000B6F9DB000493F2802C01F301B701940178
:10B7D000F4019502B8DC0496B3A00B01F50297B40E
:10B7E00000019801F60299B301DD019A02B4F70154
:10B7F0009B00019C0393B5F8000294DE0003B6F9A8
:10B8000095000593B3F2873101F3000294B402F47A
:10B81000DF0195000296B301F50297B4000198018B
:10B82000F60493B5802C00000294F701B601950050
:10B830000396B3F8000297B4000298F9000299B594
:10B8400000029AFA0793B3F28731A60C01F302942F
:10B85000B404B3F4A00B019501B4019601F501976E
:10B8600001B5019801F601990493B3802C0003946B
:10B87000B4F7000195000396B5F80001970003980E
:10B88000B6F90001990793B3F28731A60C01F302D0
:10B8900094B404B3F4A00B019501B4019601F50131
:10B8A0009701B5019801F601990493B3802C000328
:10B8B00094B4F7000195000396B5F80001970003D2
:10B8C00098B6F90001990493F2812502F3B7019427
:10B8D00001F4019501B80496B3AC0801F501970194
:10B8E000B4019801F6019901B3019A02B4F7019BE2
:10B8F00000019C0393B5F80000019402B6F901958C
:10B90000000593B3F2873101F3000294B401F4010E
:10B9100095000296B301F50297B400019801F60470
:10B9200093B5812500000294F701B60195000396B6
:10B93000B3F8000297B4000298F9000793B3F289B4
:10B9400029A60A01F3000394A40901F4019501B4A6
:10B95000019601F5019701B5019801F60493B381B1
:10B960002500000394B4F7000195000396B5F80094
:10B970000197000398B6F9000793B3F28929A60A44
:10B9800001F3000394A40901F4019501B4019601A7
:10B99000F5019701B5019801F60493B381250000E4
:10B9A0000394B4F7000195000396B5F800019700E1
:10B9B0000398B6F9000493F2802C01F301B70194C7
:10B9C00001F4019501B80496B3A00B01F50297B4F8
:10B9D00000019801F60299B300019A02B4F7019BA5
:10B9E00000019C0393B5F80001940003B6F995009B
:10B9F0000593B3F2873101F3000294B401F4019589
:10BA0000000296B301F50297B400019801F6049381
:10BA1000B5802C00000294F701B60195000396B39F
:10BA2000F8000297B4000298F9000299B500029A52
:10BA3000FA0793B3F28731A60C01F30294B404B36E
:10BA4000F4A00B019501B4019601F5019701B50130
:10BA50009801F601990493B3802C000394B4F70085
:10BA60000195000393B3F800000294B401F9019525
:10BA7000000396B5F201F3019701F40298B60005B0
:10BA800099B3D0CF0A01F5019A01B4019B01F601E7
:10BA90009C05B3AC08CB08019D02B4F7019E0001E0
:10BAA0009F06B3F8A408C308000001B401F9000020
:10BAB0000593B5F2842701F30294D101F402B695FF
:10BAC00000019601F502B797000298D201F602B87C
:10BAD000990393B3D0000394B4F70001950007963F
:10BAE000B3F8A00BCF0A00019701B40298F9000146
:10BAF0009906B3F2AD09CC0902F39A01B4029BF4A2
:10BB000000019C0693B3802CA60701F5000394B4B2
:10BB1000D1000295F6000293B3000394B4F700023B
:10BB2000D295000396B5F8000197000398B6F90086
:10BB300002D3990793B3F28731A40801F30002946A
:10BB4000B401F40195000396B3D401F50297B40053
:10BB5000019801F60293B30001D50394B4F701955F
:10BB600000000396B5F801970002D69802B6F900D6
:10BB70000899B3D0F2A00BCF0A02F39A0002B49B4B
:10BB800001F4019C000593B5F5802C000294D101CD
:10BB9000B6019502F69306B3D0AC08CB0800029428
:10BBA000B401F70195000796B3F8A607C507000290
:10BBB00097B4000298F9000393842702B5F30002BA
:10BBC00094D102F4B60195000796B3D0A408C30837
:10BBD00001F50297B400019801F60293B500000345
:10BBE00094D1F701B60195000896B3D0F8A607C521
:10BBF00007000297B4000298F9000299B501F30119
:10BC00009A01D1039BF4B600019C0793B3D0A4081A
:10BC1000C30801F50294B400019501F60693B3AD93
:10BC200009CC0900000394B4F7000195000396B510
:10BC3000F8000297D1000398B6F900019900039A21
:10BC4000B7FA000793B3D28731A40801F300029436
:10BC5000B401F40195000296B302F5D30297B40043
:10BC6000019801F60293B300000494B4F7D40001E4
:10BC700095000396B5F8000197000498B6F9D50031
:10BC80000899B3D0F2A00BCF0A01F3019A01B402D4
:10BC90009BF400019C0893B3802CAC08CB0801F501
:10BCA0000294B400019501F60293B500000394D10B
:10BCB000F701B6019506B3D0A408C3080296F800B0
:10BCC0000297B4000298F9000593B5F2812101F3BF
:10BCD0000294D101F402B695000396B3D001F501A8
:10BCE0009701B4019801F601990493B58C3A0003C9
:10BCF00094D1F70002B695000896B3D0F8A607C510
:10BD00000700019701B40298F90001990393B5F275
:10BD100001F30294D101F402B6950007B3D096A4C2
:10BD200008C30801F50297B400019801F60699B31B
:10BD3000AC08CB0800019A02B4F7019B00019C09F2
:10BD400093B3F88534A408C308000294B4000295A4
:10BD5000F9000396B5F201F3019701D103F498B607
:10BD600000019902B3D002F59A01B4019B0002F6DA
:10BD70009C0293B500019402D1F70295B600079694
:10BD8000B3D0A607C50701F8019701B4019801F9DE
:10BD900001990593B5F2873101F30294D101F402C0
:10BDA000B695000796B3D0A408C30801F501970122
:10BDB000B4019801F601990293B3000394B4F7001B
:10BDC00001950007B396F8A607C507000297B400CF
:10BDD0000298F9000299B5000493F2802C02D1F385
:10BDE00001B6019401F4019501B7019601F502979E
:10BDF000D201B8019805F693B3AD0900000294B4DE
:10BE000001F70295D3000296B501F8019700029858
:10BE1000B602B3F20399D4F300029AB401F4019B81
:10BE2000019301B501F50294D5000295B603F6938E
:10BE3000B300000294B401F70295D6000296B50152
:10BE4000F80197000298B60593B3F2A60702D7F35C
:10BE5000000294B401F4019506B3D0A906C8060106
:10BE60009601F50597A607C50700019802B4F606E6
:10BE700093B3A408C308000294B406B3F7A607C599
:10BE800007019501B4019601F8019701B5019801E8
:10BE9000F90993B3F28C3AA00BCF0A01F300029494
:10BEA000B401F40195000696B3AC08CB0801F50285
:10BEB00097B400019801F60493B5802C0001940218
:10BEC000D1F70295B6000796B3D0A408C30801F8CD
:10BED000019701B4019801F9019901B5019A0593FF
:10BEE000F2D1842701F302B69401F401950002B760
:10BEF0009601F50297D20002B89801F603B3D099E3
:10BF000000029AB401F7019B000693B3A00BCF0A7D
:10BF100001F80294B400019501F90793B3F2AD0959
:10BF2000CC0901F30294B401F40195000296B50125
:10BF3000F5019701D10298B601F60693B3802CA6BD
:10BF400007000294B401F7019501D202B39601F8FB
:10BF50000297B400019801F90593F2B5873102D335
:10BF6000F3019401F40295B60004B396A40801F518
:10BF70000297B401D4019801F60299B300019A0224
:10BF8000B4F7019B01D5019302B5F80001940003B9
:10BF900095B6F90A93B3D0F2802CA00BCF0A01F327
:10BFA000000294B401F40195000696B3AC08CB08E6
:10BFB00001F50297B400019801F60293B500000361
:10BFC00094D1F701B6019506B3D0A408C308029630
:10BFD000F8000297B4000298F9000299B5000593A1
:10BFE000F2D1842701F302B69401F401950002B75F
:10BFF0009601F50297D20002B89801F603B3D099E2
:10C0000000029AB401F7019B000693B3A00BCF0A7C
:10C0100001F80294B400019501F90793B3F2AD0958
:10C02000CC0901F30294B401F40195000296B50124
:10C03000F5019701D10298B601F60693B3802CA6BC
:10C0400007000294B401F7019501D202B39601F8FA
:10C050000297B400019801F90593F2B5873102D334
:10C06000F3019401F40295B60004B396A40801F517
:10C070000297B401D4019801F60299B300019A0223
:10C08000B4F7019B01D5019302B5F80001940003B8
:10C0900095B6F90A93B3D0F2802CA00BCF0A01F326
:10C0A000000294B401F40195000696B3AC08CB08E5
:10C0B00001F50297B400019801F60293B5000194CE
:10C0C00002D1F70295B60007B3D096A408C30801C1
:10C0D000F80297B400019801F90299B500019A029B
:10C0E000D1FA029BB600019C01FB029DB700019EA4
:10C0F00002D2FC029FB8000001FD01B9000002D38A
:0BC10000FE01BA0003BF823F0000FFF9
:00000001FF
