:10800000099FB5D0F0A825C019E502F1D501F2020B
:10801000F3D60001F402D7B602F5D801F601D90073
:1080200002F7DA01B702F8DB0690D28709CB120318
:10803000F997D70298D802FA9A03B89BD902FB9C09
:10804000029DDA02FC9F04D5FDC01901D703B9D8FF
:10805000FE0002D9FF0004DA93F0E4029BF204BAB6
:10806000DB9CF4019D03DC9FF50002DDF60003BB01
:10807000DEF70002DFF80001F90005BC93FA8A0C74
:10808000019B029CFB019D029FFC0002BDFD049030
:10809000D0CB1D0397D5FE029BD703D89DFF019E31
:1080A000039FBED90003D0C62101D501D701D80155
:1080B000BF01D90001DA0001DB0001DC0001DD05B0
:1080C00093F18709E503DE9BF302F49C029DDF0236
:1080D000F59F0001F60490D0C72503F797D5029BC2
:1080E000D703D8F89D019E039FD9F90005D0F0C6AB
:1080F00021E402D5F202D7F401D801F501D901F645
:1081000001DA01F701DB01F801DC01F901DD04D23C
:10811000FACB1D01D702D8FB0002D9FC0002DAFD20
:1081200003D2C72502D7FE01D801FF01D90001DA29
:1081300006B5D2F0C019E502D7F202D8F40002D990
:10814000F50003B6DAF60002DBF70002DCF8000304
:10815000B7DDF9000590D0FACB120297D5039BD773
:10816000FB02D89D03B89EFC029FD901FD03D0C03D
:108170001902D5FE01D703B9D8FF0001D90004DAEE
:1081800090F0E40297F2049BBADBF4019D03DC9EBD
:10819000F5019F02DDF60003BBDEF70002DFF80009
:1081A00001F90005BC90FA8A0C0197029BFB019D26
:1081B000029EFC019F02BDFD0490D0CB1D0397D50C
:1081C000FE029BD703D89DFF019E039FBED90003EB
:1081D000D0C62101D501D701D801BF01D90001DAEC
:1081E0000001DB0001DC0001DD0001DE0001DF0039
:1081F000000003D2C72501D701D80001D90001DA58
:1082000003D2C62101D701D80001D90001DA00014B
:10821000DB0001DC0001DD0003D2CB1D01D701D85A
:108220000001D90001DA03D2C72501D701D8000126
:10823000D90001DA0001DB08B5D0F0A92CC019E59E
:1082400002D5F202D7F401D801F501D902B6F60140
:10825000DA01F701DB01F801DC02B7F901DD079073
:10826000D0FA8709CB120297D5039BD7FB02D89D82
:10827000039EB8FC029FD901FD01DA04D2FEC019A9
:1082800001D703B9D8FF0001D9000490DAF0E40265
:1082900097F2049BBADBF4019D039EDCF5019F027B
:1082A000DDF60003BBDEF70002DFF80001F9000590
:1082B00090BCFA8A0C0197029BFB019D029EFC0177
:1082C0009F02BDFD0490D0CB1D0397D5FE029BD726
:1082D00003D89DFF019E039FD9BE0001DA03D2C6D9
:1082E0002101D701D801BF01D90001DA0001DB006B
:1082F00001DC0001DD0590F08709E50397DEF2025D
:108300009BF4029DDF029EF5019F01F6000593D2CA
:10831000F7C725029BD7039CD8F8019D039FD9F985
:108320000002DAFA05D2F1C621E402D7F302F4D84A
:108330000002F5D90002F6DA0002F7DB0002F8DCF1
:108340000002F9DD03D0CB1D02FAD501D702D8FB1C
:108350000002D9FC0004FDD0C72501D502D7FE01DB
:10836000D801FF01D90006B5D0F0C019E502D5F259
:1083700002D7F401D801F501D902B6F601DA01F706
:1083800001DB01F801DC02B7F901DD0590D0FACB81
:10839000120297D5039BD7FB02D89D039EB8FC021F
:1083A0009FD901FD01DA04D2FEC01901D703B9D863
:1083B000FF0001D90001DA0393F1E4049BBADBF377
:1083C00002F49C029DDC02F59F01DD01F602BBDE9A
:1083D00001F701DF01F80001F90490BC8A0C02FAF0
:1083E00097019B02FB9D019E029FFC01BD01FD04C4
:1083F00093D2CB1D03FE9BD7029CD8029DFF039F07
:10840000BED90001DA03D2C62101D701D801BF01CC
:10841000D90001DA0001DB0001DC0001DD0001DE32
:108420000001DF00000003D0C72501D501D701D826
:108430000001D90003D0C62101D501D701D8000120
:10844000D90001DA0001DB0001DC0001DD03D0CB43
:108450001D01D501D701D80001D90003D0C72501DE
:10846000D501D701D80001D90001DA0008DFF0B545
:10847000A119C10AE301B701B80001B901F101BABC
:108480000001BB0002F2BC0001BD04908709AC04EE
:1084900097B5F312029BB702B89D019E029FB901E6
:1084A000F502BAF003B2A11901B701B80002B9F19F
:1084B000000290BA0197029BBB029DF2029EBC0192
:1084C0009F01BD0002BEF30001BF000001F5069050
:1084D000F08A0CC0050197019B019D019E029FF14E
:1084E000000490B0AC1D0297B5029BB703B89DF293
:1084F000019E029FB90003B0A72102B5F301B701A5
:10850000B80001B901F501BA0001BB0002BCF600D8
:1085100001BD0690F08709CB0602BE97019B02BF02
:108520009D019E029FF100000493B2A825029BB713
:10853000039CB8F2019D029FB90002BAF005B2A7F0
:1085400021CF0501B701B80002B9F10001BA00015D
:10855000BB01F201BC0001BD06B0F0AC1DCB0601B1
:10856000B501B701B80002B9F10003B0A82501B503
:1085700001B702B8F20001B90006B0F0A119C10AB2
:1085800001B501B701B80002B9F10001BA0001BBA1
:1085900001F201BC0001BD0590B0F0AC120297B52C
:1085A000029BB702B89D019E039FB9F10002BAF089
:1085B00005B2A119C00501B701B80002B9F1000266
:1085C00090BA0197029BBB029DF2029EBC019F01E3
:1085D000BD01F001BE0001BF0001F1000690F08A6C
:1085E0000CCB060197019B019D019F01F1000493B3
:1085F000B2AC1D029BB7029CB8029DF2029FB9006B
:1086000001BA04F0B0A72103B5CF0501B701B80046
:1086100002B9F10002BAF00001BB0001BC01F10196
:10862000BD03F0CB0601BE0001BF0001F10003B2A3
:10863000A82501B701B801F201B90001BA06F0B2EC
:10864000A721CF0501B701B80001B901F101BA01B5
:10865000F001BB0001BC0002F1BD0006F0B2AC1D90
:10866000CB0601B701B80001B901F101BA03B2A804
:108670002501B701B801F201B90001BA0006B0F056
:10868000A119CF0B01B501B701B80002B9F1000182
:10869000BA0001BB01F201BC0001BD0690B0870920
:1086A000AC120397B5F3029BB702B89D019E029FDF
:1086B000B901F504B0F0A11901B501B701B8000284
:1086C000B9F10002BA900197029BBB029DF202BC75
:1086D0009E019F01BD0002BEF30001BF000001F535
:1086E0000490F08A0C0197019B019D019E029FF16D
:1086F000000490B0AC1D0297B5029BB703B89DF281
:10870000019E029FB90003B0A72102B5F301B70192
:10871000B80001B901F501BA0001BB0002BCF600C6
:1087200001BD0690F08709CB0602BE97019B02BFF0
:108730009D019E029FF100000493B2A825029BB701
:10874000039CB8F2019D029FB90002BAF003B2A7E0
:108750002101B701B80002B9F10004BAF0CF050059
:1087600001BB0001BC01F101BD03B2AC1D01B701A9
:10877000B801F201B90001BA03B2A82502F3B701AA
:10878000B80001B90002F5BA05F0B2A1190B01B7A2
:1087900001B80001B901F101BA0001BB0002F2BC4D
:1087A0000001BD000493B2AC1203F39BB7029CB866
:1087B000019D029FB90002F5BA04F0B0A11901B5FC
:1087C00001B701B80002B9F10002BA93019B02BBE4
:1087D0009C029DF202BC9F0001BD0002BEF300019D
:1087E000BF000001F504F0938A0C019B019C019DE0
:1087F000019F01F1000493B2AC1D029BB7029CB82B
:10880000029DF2029FB90001BA03B0A72102F3B59D
:1088100001B701B80001B901F501BA0001BB0002BE
:10882000BCF60001BD03F0CB0601BE0001BF000194
:10883000F10003B2A82501B701B801F201B90001A6
:10884000BA04F0B2A72101B701B80001B901F101E2
:10885000BA03F0CF0501BB0001BC0002F1BD000668
:10886000F0B2AC1DCB0601B701B80001B901F101AE
:10887000BA06F0B2A825CF0501B701B80001B901C9
:10888000F101BA000995B0F08F0EA119C10A029248
:10889000B501B701B80002B9F1019301BA0001BBFB
:1088A0000294F201BC0001BD0495B0AC120392B574
:1088B000F301B701B80001B90293F50595B0F0A135
:1088C000190292B501B701B80002B9F1019301BADA
:1088D0000001BB0294F201BC0002BD950292BE01F0
:1088E000F301BF0000019301F503F0C005000194FE
:1088F000000001F1019503B2AC1D01B701B802F20D
:108900009601B90001BA0692B28D10A72102F3B701
:1089100001B80001B9019302F5BA0001BB0194014D
:10892000BC01F601BD019506F092BE12CB06000116
:10893000BF000002F1930003B0A82501B502B7946F
:1089400002B8F20001B9019506F0B0A721CF0502E7
:1089500092B501B701B80002B9F1019301BA000163
:10896000BB0294F201BC0001BD0795F0B2AC1DCB77
:108970000601B701B8000296B901F101BA03B0A827
:10898000250297B501B702B8F2000298B90006F0C7
:10899000B2A119C10A01B70299B80001B901F102E7
:1089A0009ABA0001BB00039BF2BC0001BD00059C0C
:1089B000F0B0AC1201B501B701B8019D02B9F100E8
:1089C00006F0B0A119C005029EB501B701B80003B9
:1089D0009FB9F10001BA0001BB01F201BC0001BD69
:1089E00001F001BE0001BF0001F10003F0CB060061
:1089F00000000001F10003B2AC1D01B701B801F2A3
:108A000001B90001BA06F0B2A721CF0501B701B83C
:108A10000001B901F101BA01F001BB0001BC000283
:108A2000F1BD0004F0BECB060001BF000001F10063
:108A300003B2A82501B701B801F201B90001BA06D5
:108A4000F0B2A721CF0501B701B80001B901F101CA
:108A5000BA01F001BB0001BC0002F1BD02AC1D0473
:108A6000F0B5CB0601B701B80002B9F1000495B02A
:108A7000A8250292B501B702B8F20001B90193012D
:108A8000BA01F30695B08F0EA11905F092B5CF0B80
:108A900001B701B80002B9F1019301BA0001BB02AC
:108AA00094F201BC0001BD0492B2AC1202B7F30112
:108AB000B80001B9019302BAF505F092B2A119010B
:108AC000B701B80001B902F19301BA0001BB0194EA
:108AD00002F2BC0001BD019501BE01F301BF019688
:108AE000000001F502F0920000000002F193000383
:108AF000B2AC1D01B70294B801F201B9000295BAF7
:108B00000692B28D10A72102F3B701B80001B90196
:108B10009302F5BA0001BB019401BC01F601BD014D
:108B20009506F092BE12CB060001BF000002F19341
:108B30000003B0A82501B502B79402B8F20001B94C
:108B4000019505F0B010A7210292B501B701B80058
:108B500002B9F1019306BAF09512CF05019201BB5B
:108B60000001BC01F10293BD0695B08616AC1D0252
:108B700092B501B702B8F20001B9019303B2A8257A
:108B800002F3B701B8019401B90002F5BA0695F0F5
:108B9000B2A1190B01B701B8000296B901F101BAEF
:108BA000000297BB0002F2BC000298BD0003B2AC09
:108BB0001202F3B70299B80001B900039AF5BA049A
:108BC000F0B0A11901B501B7029BB80002B9F100DC
:108BD000029CBA0001BB02F29D01BC01BD00039ED4
:108BE000BEF30001BF00019F01F50001F00000008D
:108BF00001F10003B0AC1D01B501B702B8F20001EC
:108C0000B90003B0A72102B5F301B701B80001B95B
:108C100001F501BA0001BB0002BCF60001BD03F082
:108C2000CB0601BE0001BF0001F10003B0A8250181
:108C3000B501B702B8F20001B90004B0F0A72101F4
:108C4000B501B701B80002B9F10004BAF0CF0500D0
:108C500001BB0001BC01F101BD06B0F0AC1DCB06AB
:108C600001B501B701B80002B9F10006B0F0A825BE
:108C7000CF0501B501B701B80002B9F10001BA0092
:108C800009F095B08F0EA119C10A0292B501B70182
:108C9000B80002B9F1019301BA0001BB0294F201DC
:108CA000BC0001BD0492B2AC1202F3B701B80001DE
:108CB000B9019302F5BA05F092B2A11901B701B852
:108CC0000001B902F19301BA0001BB019402F2BCA8
:108CD0000001BD019501BE01F301BF019600000135
:108CE000F504F092C0050000000002F1930003B209
:108CF000AC1D01B70294B801F201B9000295BA06A1
:108D000092B28D10A72102F3B701B80001B9019307
:108D100002F5BA0001BB019401BC01F601BD019549
:108D200006F0BE8A0CCB06019201BF000001F101E2
:108D30009303B2A82501B701B80294F201B9000269
:108D4000BA9509F092B28F0EA721CF0501B701B8ED
:108D50000001B902F19301BA0001BB019402F2BC17
:108D60000001BD0395AC1D04F0B5CB0601B701B8F9
:108D7000019602B9F10001BA0497B2A82501B70221
:108D8000B8F2000298B90002BAF005B2A119C10AFE
:108D90000299B701B80002B9F1019A01BA0001BB0A
:108DA000029BF201BC0001BD059CB0F0AC1201B504
:108DB00001B701B8019D02B9F10002BAF0069EB2F6
:108DC000A119C00501B701B800039FB9F10001BAAC
:108DD0000001BB01F201BC0001BD01F001BE0001B8
:108DE000BF0001F10003F0CB060000000001F1001C
:108DF00003B0AC1D01B501B702B8F20001B900061D
:108E0000B0F0A721CF0501B501B701B80002B9F153
:108E10000002BAF00001BB0001BC01F101BD03F08A
:108E2000CB0601BE0001BF0001F10003B0A825017F
:108E3000B501B702B8F20001B90006B0F0A721CF22
:108E40000501B501B701B80002B9F10002BAF0009E
:108E500001BB0001BC01F101BD06B0F0AC1DCB06A9
:108E600001B501B701B80002B9F10003B0A82501AE
:108E7000B501B702B8F20001B90001BA01F307F079
:108E800092B2A119CF0B01B701B80001B902F19359
:108E900001BA0001BB019402F2BC0001BD019504BE
:108EA00092B2AC1202F3B701B80001B9019302F516
:108EB000BA05F092B2A11901B701B80001B902F1E7
:108EC0009301BA0001BB019402F2BC0001BD0195FF
:108ED00002BEF30001BF0196000002F59502F09278
:108EE00000000001F1019303B0AC1D01B501B7030F
:108EF00094B8F20001B9000695B08D10A721039235
:108F0000B5F301B701B80001B90293F501BA000148
:108F1000BB019402BCF60001BD0595F012CB060220
:108F200092BE0001BF0001F1019303B0A82501B575
:108F300001B70394B8F20001B9000695B0F010A78C
:108F4000210292B501B701B80002B9F1019302BA4A
:108F5000F0049212CF0501BB0001BC01F102BD93E8
:108F6000000692B28616AC1D01B702B8F20001B934
:108F7000019301BA04B2F3A82501B70294B8000125
:108F8000B901F50395BAF004B2A1190B01B701B804
:108F9000019602B9F10001BA019701BB01F201BCCF
:108FA000019801BD03B0AC1202B5F302B79901B844
:108FB0000001B9029AF504B0F0A11901B501B70298
:108FC000B89B0002B9F10002BA9C0001BB01F20299
:108FD000BC9D0001BD0003BE9EF30001BF00019FC8
:108FE00001F501F00000000001F10003B0AC1D012B
:108FF000B501B702B8F20001B90003B0A72102B56C
:10900000F301B701B80001B901F501BA0001BB00D5
:1090100002BCF60001BD03F0CB0601BE0001BF009B
:1090200001F10003B0A82501B501B702B8F20001B3
:10903000B90004B0F0A72101B501B701B80002B929
:10904000F101BA03F0CF0501BB0001BC0002F1BD84
:109050000006F0B2AC1DCB0601B701B80001B901A2
:10906000F101BA06F0B2A825CF0501B701B8000199
:10907000B901F101BA0006B0F0A119C10A01B501A8
:10908000B701B80002B9F10001BA0001BB01F20159
:10909000BC0001BD0690B08709AC120397B5F3027E
:1090A0009BB702B89D019E029FB901F502BAF00379
:1090B000B2A11901B701B80002B9F1000290BA01DA
:1090C00097029BBB029DF2029EBC019F01BD000264
:1090D000BEF30001BF000001F50690F08A0CC00548
:1090E0000197019B019D019E029FF1000490B0AC8D
:1090F0001D0297B5029BB703B89DF2019E029FB96E
:109100000003B0A72102B5F301B701B80001B9010E
:10911000F501BA0001BB0002BCF60001BD0690F0EB
:109120008709CB0602BE97019B02BF9D019E029F4D
:10913000F100000493B2A825029BB7039CB8F2018A
:109140009D029FB90002BAF005B2A721CF0501B771
:1091500001B80002B9F10001BA0001BB01F201BC83
:109160000001BD06B0F0AC1DCB0601B501B701B8DA
:109170000002B9F10003B0A82501B501B702B8F2A9
:109180000001B90006B0F0A119C10A01B501B7018B
:10919000B80002B9F10001BA0001BB01F201BC0044
:1091A00001BD0590B0F0AC120297B5029BB702B8B2
:1091B0009D019F02B9F101BA01F005B5A119C005E1
:1091C00001B701B80002B9F10002BA93019B02BBDA
:1091D0009C029DF202BC9F0001BD01F001BE000196
:1091E000BF0001F10006F0938A0CCB06019B019CA5
:1091F000019D019F01F1000493B2AC1D029BB702D7
:109200009CB8029DF2029FB90001BA06F0B0A721F6
:10921000CF0501B501B701B80002B9F10002BAF0FB
:109220000001BB0001BC01F101BD03F0CB0601BE92
:109230000001BF0001F10003B2A82501B701B80188
:10924000F201B90001BA06F0B2A721CF0501B701BA
:10925000B80001B901F101BA01F001BB0001BC0085
:1092600002F1BD0006F0B2AC1DCB0601B701B8009B
:1092700001B901F101BA03B2A82501B701B801F2A1
:1092800001B90001BA0006B0F0A119CF0B01B50178
:10929000B701B80002B9F10001BA0001BB01F20147
:1092A000BC0001BD0690B08709AC120397B5F3026C
:1092B0009BB702B89D019E029FB901F504B0F0A1D1
:1092C0001901B501B701B80002B9F10002BA900165
:1092D00097029BBB029DF202BC9E019F01BD000252
:1092E000BEF30001BF000001F50490F08A0C019765
:1092F000019B019D019E029FF1000490B0AC1D02F4
:1093000097B5029BB703B89DF2019E029FB9000377
:10931000B0A72102B5F301B701B80001B901F50109
:10932000BA0001BB0002BCF60001BD06F09387093C
:10933000CB0602BE9B019C02BF9D019F01F1000173
:10934000900497B5A825029BB703B8F29D019E0231
:109350009FB90004F0B0A72101B501B701B8000220
:10936000B9F10004BAF0CF050001BB0001BC01F166
:1093700001BD03B2AC1D01B701B801F201B9000192
:10938000BA03B2A82502F3B701B80001B90002F58B
:10939000BA05F0B2A1190B01B701B80001B901F18A
:1093A00001BA0001BB0002F2BC0001BD000493B28F
:1093B000AC1203F39BB7029CB8019D029FB9000257
:1093C000F5BA04F0B0A11901B501B701B80002B9AE
:1093D000F10002BA93019B02BB9C029DF202BC9F6A
:1093E0000001BD0002BEF30001BF000001F504F062
:1093F000938A0C019B019C019D019F01F100049344
:10940000B2AC1D029BB7029CB8029DF2029FB9004C
:1094100001BA03B2A72102F3B701B80001B90002F3
:10942000F5BA0001BB0001BC01F601BD0004F0BEAD
:10943000CB060001BF000001F10003B2A82501B76F
:1094400001B801F201B90001BA04F0B2A72101B7D5
:1094500001B80001B901F101BA03F0CF0501BB0069
:1094600001BC0002F1BD0006F0B2AC1DCB0601B795
:1094700001B80001B901F101BA06F0B2A825CF0583
:1094800001B701B80001B901F101BA0009B0F092C9
:109490008F0EA119C10A01B501B701B80003B9F1D6
:1094A0009301BA0001BB019402F2BC0001BD019519
:1094B0000492B2AC1202F3B701B80001B9019302F1
:1094C000F5BA05F092B2A11901B701B80001B902CD
:1094D000F19301BA0001BB019402F2BC0001BD018D
:1094E000950292BE01F301BF0000019301F503F064
:1094F000C005000194000001F1019503B2AC1D010B
:10950000B701B802F29601B90001BA0692B28D1005
:10951000A72102F3B701B80001B9019302F5BA001F
:1095200001BB019401BC01F601BD019506F092BE9C
:1095300012CB060001BF000002F1930003B0A82582
:1095400001B502B79402B8F20001B9019506F0B076
:10955000A721CF050292B501B701B80002B9F10108
:109560009301BA0001BB0294F201BC0001BD079552
:10957000F0B0AC1DCB0601B501B701B8019602B938
:10958000F10003B0A8250297B501B702B8F20002B6
:1095900098B90006F0B0A119C10A01B50299B70146
:1095A000B80002B9F1019A01BA0001BB029BF201B5
:1095B000BC0001BD059CF0B2AC1201B701B80002BD
:1095C0009DB901F101BA06F0B0A119C005029EB51E
:1095D00001B701B800039FB9F10001BA0001BB0156
:1095E000F201BC0001BD01F001BE0001BF0001F1AC
:1095F0000003F0CB060000000001F10003B2AC1D37
:1096000001B701B801F201B90001BA06F0B5A7210E
:10961000CF0501B701B80001B901F101BA01F001AC
:10962000BB0001BC01F101BD0004F0BECB0600018E
:10963000BF0001F10003B0A82501B501B702B8F2DF
:109640000001B90005B0A721CF0502F0B501B701AF
:10965000B80002B9F10002BAF00001BB0001BC0180
:10966000F101BD06B0F0AC1DCB0601B501B701B8E4
:109670000002B9F1000495B0A8250292B501B70225
:10968000B8F20001B9019301BA01F30995B0F08F66
:109690000EA119CF0B0292B501B701B80002B9F1C2
:1096A000019301BA0001BB0294F201BC0001BD04A8
:1096B00092B2AC1202B7F301B80001B9019302BA39
:1096C000F505F092B2A11901B701B80001B902F194
:1096D0009301BA0001BB019402F2BC0001BD0195E7
:1096E00001BE01F301BF0196000001F502F09200F6
:1096F00000000002F1930003B2AC1D01B70294B860
:1097000001F201B9000295BA0692B28D10A72102AA
:10971000F3B701B80001B9019302F5BA0001BB012A
:109720009401BC01F601BD019506F092BE12CB0674
:109730000001BF000002F1930003B0A82501B502AB
:10974000B79402B8F20001B9019506F092B210A7E1
:109750002101B701B80001B902F19301BA05F095F2
:1097600012CF050292BB0001BC0002F1BD019306BD
:1097700095B08616AC1D0292B501B702B8F2000191
:10978000B9019303B2A82502F3B702B8940001B956
:109790000003F5BA9505F0B5A1190B01B701B801A1
:1097A0009602B9F10001BA019701BB01F201BC01B7
:1097B0009801BD03B0AC1202B5F302B79901B8002D
:1097C00001B9029AF502BAF003B2A11901B7029BDE
:1097D000B80002B9F100029CBA0001BB01F2029D7F
:1097E000BC0001BD00039EBEF30001BF00019F014C
:1097F000F501F00000000001F10003B0AC1D01B55F
:1098000001B702B8F20001B90003B0A72102B5F315
:1098100001B701B80001B901F501BA0001BB0002AE
:10982000BCF60001BD03F0CB0601BE0001BF000184
:10983000F10003B0A82501B501B702B8F20001B9E3
:109840000004B0F0A72101B501B701B80002B9F1D9
:109850000004BAF0CF050001BB0001BC01F101BD5D
:1098600006B0F0AC1DCB0601B501B701B80002B9D6
:10987000F10006B0F0A825CF0501B501B701B80089
:1098800002B9F10001BA0009F092B28F0EA119C11C
:109890000A01B701B80001B902F19301BA0001BB96
:1098A000019402F2BC0001BD01950492B2AC120217
:1098B000F3B701B80001B9019302F5BA05F092B20D
:1098C000A11901B701B80001B902F19301BA000171
:1098D000BB019402F2BC0001BD019501BE01F30180
:1098E000BF0196000001F504F092C00500000000E1
:1098F00002F1930003B5AC1D01B70294B801F20167
:10990000B9000495BA8D100592B5F3A72101B701EE
:10991000B80001B90293F501BA0001BB019402BC81
:10992000F60001BD03958A0C05F092BECB0600013E
:10993000BF0001F1019303B0A82501B501B703945D
:10994000B8F20001B9000895B08F0EA721CF05032A
:10995000F092B501B701B80002B9F1019301BA0064
:1099600001BB0294F201BC0001BD0795B0F0AC1D33
:10997000CB0601B501B701B8019602B9F10001BAF1
:109980000497B2A82501B702B8F2000298B9000204
:10999000BAF005B2A119C10A0299B701B80002B91B
:1099A000F1019A01BA0001BB029BF201BC0001BDAA
:1099B000059CB0F0AC1201B501B701B8019D02B928
:1099C000F10006B0F0A119C005029EB501B701B8BB
:1099D00000039FB9F10001BA0001BB01F201BC0014
:1099E00001BD01F001BE0001BF0001F10003F0CB99
:1099F000060000000001F10003B0AC1D01B501B785
:109A000002B8F20001B90006B0F0A721CF0501B5F8
:109A100001B701B80002B9F10002BAF00001BB00C1
:109A200001BC01F101BD03F0CB0601BE0001BF0086
:109A300001F10003B0A82501B501B702B8F2000199
:109A4000B90006B0F0A721CF0501B501B701B800F4
:109A500002B9F10002BAF00001BB0001BC01F10142
:109A6000BD06B0F0AC1DCB0601B501B701B80002D0
:109A7000B9F10003B0A82501B501B702B8F20001A1
:109A8000B901BA0001F307F092B5A119CF0B01B7E4
:109A900001B80001B902F19301BA0001BB019402BF
:109AA000F2BC0001BD0495B0AC120392B5F301B74E
:109AB00001B80001B90293F50495B0A11903F09221
:109AC000B501B701B80002B9F1019301BA0001BBB9
:109AD0000294F201BC0001BD019502BEF30001BF7A
:109AE00001960001F50295F0019200000001F101DC
:109AF0009303B0AC1D01B501B70394B8F20001B9EE
:109B0000000695B08D10A7210392B5F301B701B8F7
:109B10000001B90293F501BA0001BB019402BCF641
:109B20000001BD0595F012CB060292BE0001BF00F8
:109B300001F101930003B2A82501B70394B8F20024
:109B400001B9000395BAF00592B210A72101B7013F
:109B5000B80002B9F1019302BAF0049212CF0501E4
:109B6000BB0001BC01F10293BD000692B28616ACA7
:109B70001D01B702B8F20001B9019303B0A8250294
:109B8000B5F301B702B8940001B901F50695B0F03C
:109B9000A1190B01B501B701B8019602B9F1000195
:109BA000BA019701BB01F201BC019801BD03B0AC41
:109BB0001202B5F302B79901B80001B9029AF50291
:109BC000BAF003B2A11901B7029BB80002B9F100C3
:109BD000029CBA0001BB01F2029DBC0001BD000362
:109BE0009EBEF30001BF00019F01F501F0000000DF
:109BF0000001F10003B0AC1D01B501B702B8F201DC
:109C0000B90001BA03B2A72102F3B701B80001B944
:109C10000002F5BA0001BB0001BC01F601BD000461
:109C2000F0BECB060001BF000001F10003B2A82581
:109C300001B701B801F201B90001BA04F0B2A721DD
:109C400001B701B80001B901F101BA03F0CF050174
:109C5000BB0001BC0002F1BD0006F0B2AC1DCB069A
:109C600001B701B80001B901F101BA06F0B2A825A7
:109C7000CF0501B701B80001B901F101BA0007959C
:109C8000BBF28F0EC807019201BC0001BD00029318
:109C9000BE0001BF00019400000001950001F30027
:109CA000019600000495F28D100192000000000161
:109CB00093000000019400000001950001F30001F1
:109CC0009600000495F2CB0601920000000001937B
:109CD000000000019400000001950001F3000196CE
:109CE00000000001970000000198000695B58F1351
:109CF000AC100292B2000001F4000293B30006928D
:109D0000B28219AE13000000000293B3000592B2B4
:109D10008D120E000000000393B3F5000692B28F7F
:109D200013AC10000000000293B30000000294B4D2
:109D30000000000295B501F600000296B60000058D
:109D400095F20EC8070292B700000001B801930017
:109D50000001B90194000002BA95000001F302BBB2
:109D60009600000005BCF2928D1000000001BD01BC
:109D700093000001BE0194000001BF0195000001A5
:109D8000F3019600000004F292CB060000000001EF
:109D90009300000001940000000195000001F30110
:109DA000960000000197000000019800000492B2A4
:109DB0008F1300000001F40293B30000000294B47A
:109DC0000000000295B50692B28D12AE0E000000A2
:109DD000000293B301F50692B28F13AC100000009D
:109DE000000293B30000000294B40000000295B595
:109DF0000001F6000296B60000000297B70005F2D7
:109E0000920EC8070001B80000019301B9000001DB
:109E10009401BA0000019501BB0001F3019601BC59
:109E2000000495F28D10019201BD0000000293BE66
:109E30000000000294BF00000001950001F3000142
:109E40009600000495F2CB060192000000000193F9
:109E5000000000019400000001950001F30001964C
:109E600000000001970000000198000495B58F13D1
:109E70000292B2000001F4000293B3000692B28293
:109E800019AE13000000000293B3000592B28D12C8
:109E90000E000000000393B3F5000692B28F13ACDE
:109EA00010000000000293B30000000294B4000010
:109EB000000295B501F600000296B6000005F29288
:109EC0000EC80701B700000002B89300000002B9F5
:109ED0009400000002BA95000001F302BB96000056
:109EE0000002BC9700000002BD98000003928D1094
:109EF00001BE000001F402BF9300000001940000C5
:109F0000000195019200000000019301F50000019D
:109F100094000000019506F292820ECB060000002C
:109F20000001930000000194000000019500000171
:109F3000F3019600000003928F0E000000000193D1
:109F400000000001940001F400019500000001965A
:109F500000000003928A0C00000000019301F5004C
:109F600000019400000001950003F2CF0500019666
:109F70000000000197000000019800000001990016
:109F800001F300019A000000019B000000019C0009
:109F90000000019D0001F400019E000000019F00EF
:109FA000000000000000000001F5000000000000BB
:109FB000000995B5F28A06AD07C5050692B2870677
:109FC000A907048606A7070000000293B30000005B
:109FD0000294B40000000295B50001F3000296B6A9
:109FE0000000000692B2AA088407048207A60800AF
:109FF00000000293B30000000294B401F4000002D8
:10A0000095B50000000296B600000695B58E07AF24
:10A01000090692B28A07A909048807A60900000068
:10A020000393B3F50000000294B40000000295B55C
:10A030000003F0C10A000296B6000001F10297B7D2
:10A0400003B2A11900000298F2000002AC120199BB
:10A0500001F30000019A0003F0A90C00019B00002D
:10A0600001F1019C02A10E0000029DF2000000021D
:10A070009E1901F30000019F0001F505F0AE0EC02E
:10A08000050000000001F10002A11900028E070185
:10A09000F2000000048A07AC1003F38807000000F8
:10A0A0000001F502A11900000001F6000005F0AC66
:10A0B00012CB060000000001F10002A1190000010E
:10A0C000F200000005F0AC10CF050000000001F127
:10A0D0000002AE0E000001F200000005F0AC12CB51
:10A0E000060000000001F10002A119000001F200C9
:10A0F000000003F0C10A0000000001F10003928299
:10A10000190001B301F200000003F08D12000000FD
:10A110000001F10005F08A0CC00500000001B40147
:10A12000F10002820E000001F200000002F01900AE
:10A1300000000001F101B505F08F0ECB0600000014
:10A140000001F100028219000001F200000005F098
:10A150008D10CF0501B600000001F10003F0821957
:10A160000000000001F10005F08D12CB0600000197
:10A17000B70001F100028219000001F200000005A1
:10A18000F08D10CF050000000002B8F10003F08F41
:10A190000E0000000001F10005F08D12CB0600005A
:10A1A000000001F10003B98A0C000001F200000078
:10A1B0000001F002CF0B00000001F10003B2AC1D62
:10A1C00001930001F200000002A51601F300000057
:10A1D0000001F503F0AE0E000001940001F1000251
:10A1E000AC10000001F2000000011D01F3000000AE
:10A1F000019501F502F0120000000001F100011DBF
:10A20000000001F20000000396AE1301F30000000D
:10A210000001F502AC1D00000001F6000005F0A5EC
:10A2200016CB06000197000001F10002AC1D0000F2
:10A2300001F200000003F0AE13000000019801F1EC
:10A240000005F0AC12CF050000000001F10002A5EE
:10A2500016000001F20000019902AC1D01F300009C
:10A26000000001F502F00B0000000001F100039274
:10A270008D1D0001B301F200000002861601F300FB
:10A2800000000001F503F08F0E00000001B401F1A1
:10A2900000028D10000001F2000000011D01F3001A
:10A2A00000000002B5F502F0120000000001F1000C
:10A2B000011D000001F2000000028F1302B6F3003E
:10A2C00000000001F5028D1D00000001F6000005F0
:10A2D000F08616CB06000001B70001F100028D1DCB
:10A2E000000001F200000003F08F130000000002E4
:10A2F000B8F10005F08D12CF050000000001F1005B
:10A3000005F08616CB060000000001F10006B9F04A
:10A310008F0ECF050000000001F100000003F0C126
:10A320000A0000000001F103B2A11901930000012D
:10A33000F2000002AC120001F30000000003F0A9DB
:10A340000C000001940001F10002A10E000001F2D6
:10A35000000000011901F3000000019501F505F06E
:10A36000AE0EC0050000000001F10002A1190000BE
:10A3700001F20000000396AC1001F30000000001A0
:10A38000F502A11900000001F6000005F0AC12CBA7
:10A3900006000197000001F10002A119000001F27E
:10A3A00000000005F0AC10CF05000000019801F19D
:10A3B0000002AE0E000001F200000005F0AC12CB6E
:10A3C000060000000002F1990002A119000001F24C
:10A3D00000000003F0C10A0000000001F100039238
:10A3E00082190001B301F200000003F08D12000099
:10A3F000000001F10005F08A0CC00500000001B466
:10A4000001F10002820E000001F200000002F019CA
:10A410000000000001F101B505F08F0ECB06000031
:10A42000000001F100028219000001F200000005A5
:10A43000F08D10CF0501B600000001F10003F0829D
:10A44000190000000001F10005F08D12CB0600009C
:10A4500001B70001F100028219000001F2000000C2
:10A4600005F08D10CF050000000002B8F10003F0E8
:10A470008F0E0000000001F10005F08D12CB0600E8
:10A4800000000001F10003B98A0C000001F2000095
:10A49000000001F002CF0B00000001F10003B2AC9C
:10A4A0001D01930001F200000002A51601F3000057
:10A4B000000001F503F0AE0E000001940001F10070
:10A4C00002AC10000001F2000000011D01F30000C9
:10A4D00000019501F502F0120000000001F10001F9
:10A4E0001D000001F20000000396AE1301F300000E
:10A4F000000001F502AC1D00000001F6000005F0AF
:10A50000A516CB06019700000001F10002AC1D006A
:10A510000001F200000003F0AE13000001980001FA
:10A52000F10005F0AC12CF050000000001F10002BF
:10A53000A516000001F20001990002AC1D01F30014
:10A5400000000001F502F00B0000000001F1000323
:10A55000928D1D0001B301F200000002861601F386
:10A560000000000001F503F08F0E00000001B401AF
:10A57000F100028D10000001F2000000011D01F346
:10A580000000000002B5F502F0120000000001F129
:10A5900000011D000001F2000000028F1302B6F35B
:10A5A0000000000001F5028D1D00000001F6000012
:10A5B00005F08616CB06000001B70001F100028D00
:10A5C0001D000001F200000003F08F1300000000E6
:10A5D00002B8F10005F08D12CF050000000001F176
:10A5E0000005F08616CB060000000001F10006B958
:10A5F000F08F0ECF050000000001F1000001F20213
:10A60000C8070000000001930001BA000194000097
:10A610000001950001F300019600000495F28D10F1
:10A6200001920001BB0000019300000001940000B2
:10A630000001950001F300019601BC000495F2CBE6
:10A640000601920000000193000000019400000048
:10A650000295BD000001F301960000000197000083
:10A6600000019800000592B28F131000000001F461
:10A670000293B3000695B58219AE130292B20000A0
:10A6800000000293B30592B28D120E00000000028A
:10A6900093B301F50695B58F13AC100292B200008A
:10A6A00000000293B30000000294B4000000029581
:10A6B000B501F600000296B6000005F2920EC8073A
:10A6C00001B700000002B89300000002B994000036
:10A6D0000002BA95000001F302BB9600000005BC21
:10A6E000F2928D1000000001BD0193000001BE0137
:10A6F00094000001BF0195000001F30196000000E5
:10A7000004F292CB060000000001930000000194C7
:10A710000000000195000001F30196000000019780
:10A72000000000019800000492B28F1300000001A5
:10A73000F40293B30000000294B40000000295B547
:10A740000692B28D12AE0E000000000293B301F526
:10A750000695B58F13AC100292B200000000029370
:10A76000B30000000294B40000000295B501F600A9
:10A77000000296B60000000397B7F204920EC807D5
:10A78000000001B80001930001B90001940001BA72
:10A790000001950002BBF30001960001BC04F29297
:10A7A0008D100001BD0000019301BE000001940165
:10A7B000BF00000195000001F3019600000004F2C3
:10A7C00092CB0600000000019300000001940000FD
:10A7D000000195000001F3019600000001970000C0
:10A7E00000019800000492B28F1300000001F402EF
:10A7F00093B3000695B58219AE130292B200000021
:10A80000000293B30595B58D120E0292B2000000BE
:10A81000000393B3F50695B58F13AC100292B20006
:10A820000000000293B30000000294B40000000294
:10A8300095B501F600000296B6000005F2950EC827
:10A84000070292B700000001B80193000001B901AE
:10A8500094000001BA01950001F301BB01960000CC
:10A8600001BC0197000001BD01980003928D100109
:10A87000BE000001F402BF9300000001940000003C
:10A880000195019200000000019301F50000019480
:10A89000000000019506F292820ECB060000000037
:10A8A000019300000001940000000195000001F3F5
:10A8B000019600000003928F0E000000000193003B
:10A8C000000001940001F4000195000000019600D1
:10A8D000000003928A0C00000000019301F50000C3
:10A8E000019400000001950003F2CF0500019600DD
:10A8F000000001970000000198000000019900018C
:10A90000F300019A000000019B000000019C000080
:10A9100000019D0001F400019E000000019F000065
:10A920000000000000000001F50000000000000031
:10A9300009F292B2C5058806AB07048606A7070090
:10A9400000000293B30000000294B40000000295DE
:10A95000B5000001F30296B60000000695B5870722
:10A96000AC080692B28407A808048207A608000073
:10A97000000293B30000000294B401F400000295B9
:10A98000B50000000296B600000692B28C07AB0933
:10A99000048807A6090000000293B301F500000235
:10A9A00094B40000000295B50007D0F0A825C019A6
:10A9B000E502D5F20296F401D601F501D703B69768
:10A9C000F601D801F701D90298F801DA02B7F901C6
:10A9D000DB0793D2FA8709CB12029BD7039CD8FBE3
:10A9E000019D04B89FD9FC0002DAFD03D2C0190210
:10A9F000D7FE01D802B9FF01D9000490DAF0E402D1
:10AA000097F2039BDBF402BA9D039EDCF5019F02E3
:10AA1000DDF60002DEF701BB02DFF80001F90004F9
:10AA200090FA8A0C02BC97029BFB019D029EFC01DE
:10AA30009F01FD01BD0593D2FECB1D029BD7039C58
:10AA4000D8FF019D029FD901BE01DA03D2C62101C0
:10AA5000D701D80002BFD90001DA0001DB0001DC18
:10AA60000001DD0590F08709E50397DEF2029BF413
:10AA7000029DDF029EF5019F01F6000593D2F7C704
:10AA800025029BD7039CD8F8019D039FD9F90002AA
:10AA9000DAFA05D2F1C621E402D7F302F4D80002B3
:10AAA000F5D90002F6DA0002F7DB0002F8DC00025A
:10AAB000F9DD03D0CB1D02FAD501D702D8FB000285
:10AAC000D9FC0004FDD0C72501D502D7FE01D8016D
:10AAD000FF01D90006B5D0F0C019E502D5F202D7C2
:10AAE000F401D801F501D902B6F601DA01F701DB6C
:10AAF00001F801DC02B7F901DD0590D0FACB1202B2
:10AB000097D5039BD7FB02D89D039EB8FC029FD923
:10AB100001FD01DA04D2FEC01901D703B9D8FF0044
:10AB200001D9000290DA03F19BE403BADBF302F4EB
:10AB30009D02DC9F01F501DD01F602BBDE01F7019C
:10AB4000DF01F80001F904BC938A0C02FA9B019C16
:10AB500002FB9D019F01FC02BDFD01900597D5FE02
:10AB6000CB1D029BD702D89D02FF9E039FBED9003A
:10AB700001DA03D5C62101D701D801BF01D90001EF
:10AB8000DA0001DB0001DC0001DD0001DE0001DF95
:10AB900000000003D2C72501D701D80001D9000168
:10ABA000DA03D2C62101D701D80001D90001DA00A9
:10ABB00001DB0001DC0001DD0003D2CB1D01D70168
:10ABC000D80001D90001DA03D2C72501D701D80086
:10ABD00001D90001DA0001DB06B5D0A92CC01903A8
:10ABE000D5F2E502D7F401D801F501D902B6F60194
:10ABF000DA01F701DB01F801DC02B7F901DD0690AB
:10AC0000D08709CB1203FA97D5039BD7FB02D89DB7
:10AC1000039EB8FC029FD901FD03D0C01902D5FEE6
:10AC200001D703D8B9FF0001D90004DA90F0E4029B
:10AC300097F2049BDBBAF4019D03DC9EF5019F02B1
:10AC4000DDF60003DEBBF70002DFF80001F90005C6
:10AC500090BCFA8A0C0197029BFB019D029EFC01AD
:10AC60009F02BDFD0490D0CB1D0397D5FE029BD75C
:10AC700003D89DFF019E039FD9BE0003D0C62101CA
:10AC8000D501D701D801BF01D90001DA0001DB00ED
:10AC900001DC0001DD0590F08709E503DE97F20293
:10ACA0009BF402DF9D029EF5019F01F60490D0C740
:10ACB000250397D5F7029BD703D89DF8019E039FE4
:10ACC000D9F90002DAFA05D2F1C621E402D7F3027B
:10ACD000F4D80002F5D90002F6DA0002F7DB000230
:10ACE000F8DC0002F9DD03D0CB1D02FAD501D70252
:10ACF000D8FB0002D9FC0004FDD0C72501D502D73E
:10AD0000FE01D801FF01D90006B5D0F0C019E50257
:0CAD1000D5F202D7F401D801F50000FFD5
:00000001FF
