:108000000B93F6B5D5E58C11AB17C72F03F8B4D495
:1080100001FA01FC01FF01DF00000294B50003F545
:10802000D6E402F7D502F9D401FB03FF8E11000458
:10803000F5DF8D1103F78C1103F98B1105FD95B652
:108040008A1103FF8B11028C1104F4D68D1103D514
:108050008E1102F5D403F78C110496B78B1103F837
:108060008A1102F9DF03FF8B11028D11028E1100BC
:10807000028D1106F593B6D68D1203F9B4D401FB27
:1080800001FD01FF00049FBFDFF701F901FB01FDC6
:1080900001FF05F493B6D6E503F6B5D503F8B4D4DD
:1080A00001FA01FC02FFDF0000000294B50003F5B5
:1080B000D6E402F7D502F9D401FB03FF8F120004C6
:1080C000F5DF8E1203F78D1203F98B1205FD95B6BD
:1080D0008A1203FF8B12028D1204F4D68E1203D57E
:1080E0008F1204F5D48E1203F78D120496B78B12FB
:1080F00003F88A1202F9DF03FF8D12028E12028F3B
:108100001200028E120693F7B5D5811503F9B4D487
:1081100001FB01FD01FF04F59FBFDF01F701F9013C
:10812000FB01FD05F493B6D6E503F6B5D503F8B427
:10813000D401FA01FC01FF01DF00000294B5000048
:1081400003F5D6E402F7D502F9D403FD841501FF47
:1081500002831504F5DF811503F7801505FB95B63D
:108160008F1403FD801503FF811502831504F4D6D7
:10817000841504F5D4831502811505F796B780158B
:10818000028F1401F804DFFF8115028315028415A4
:108190000002831506F593B6D68D1203F7B5D50305
:1081A000F9B4D401FB01FD04F59FBFDF01F701F92C
:1081B00001FB01FD01FF05F493B6D6E503F6B5D545
:1081C00003F8B4D401FA01FF0001DF00000294B506
:1081D000000003F5D6E402F7D504D4FB8E1203FDAC
:1081E0008F1201FF028E1204F5DF8D1203F98B123C
:1081F00005FB95B68A1203FD8B1203FF8D12028ECA
:108200001205F493D6811502F5D40002F7B70001E8
:10821000F802DFFF00019400000693F7B5D58D1238
:1082200003F9B4D401FB01FD01FF02F5DF01F70101
:10823000F903FB94B501FD01FF07F493B6D6E58C75
:108240001103F6B5D503F8B4D401FA01FF0001DF3C
:1082500000000294B5000003F5D6E402F7D504D47B
:10826000FB8D1103FD8E1101FF028D1104F5DF8CD2
:108270001103F98A1103FB95B603FD8B1103FF8CE3
:1082800011028D1104F4D58E1104F5D48D11028CD8
:108290001105F796B78B11028A1104DFF98B1103D0
:1082A000FF8C11028D11028E110006F593B6D68D4A
:1082B0001203F7B5D503F9B4D401FB01FD01FF04A6
:1082C000F59FBFDF01F701F901FB01FF0005F49302
:1082D000B6D6E503F6B5D503F8B4D401FC01FF002A
:1082E00001DF000294B500000003F5D6E402F9D4E2
:1082F00003FB8E1203FD8F1201FF028E1204DFF7C3
:108300008B1203F98A1203FB95B603FD8B1203FF50
:108310008D1204F4D58F1202F5D4028E1203F78D5C
:10832000120496B78B1204F9DF8A1203FF8B120234
:108330008D12028E12028F12028E1205F593B6D69E
:108340001203F7B5D503F9B4D401FB01FF0004F51E
:108350009FBFDF01F701F901FD01FF0005F493B6AE
:10836000D6E503F6B5D503B4D4FA01FC01FF00014C
:10837000DF000294B500000003D6F7E402F9D4034D
:10838000FB831503FD841501FF04F5DF831503F955
:10839000801503FB8F1403FD95B603FF8015028142
:1083A0001504F4D5841502F5D402831503F781155D
:1083B0000496B7801504F9DF8F1403FF801502813E
:1083C0001502831502841502831506F593B6D68D22
:1083D0001203F7B5D503F9B4D401FB01FF0004F58E
:1083E0009FBFDF01F701F901FD01FF0005F493B61E
:1083F000D6E503F6B5D503B4D4FA01FC01FF0001BC
:10840000DF000294B5000003F5D6E402F9D401FBC5
:1084100003FD8E1203FF8F120004DFF78D1203F9A4
:108420008B1203FB8A1203FD95B603FF8B1207F430
:1084300093D68115C43F01D502F5D40001F702B7E8
:10844000F804F9D6C72F02FFD501D4019400000823
:10845000F493B6D68D12C43F02B5D503F5B4D4015A
:10846000F70001F801F40004F594B5D501F7000117
:10847000F809F493B6D6E58C11C72F03F8B4D401EC
:10848000FA01FC01FF01DF00000294B5000003F7D0
:10849000D5E402F9D401FB03FD8D1103FF8E110415
:1084A000F5DF8D1103F78C1103F98B1103FB8A1192
:1084B00003FD95B603FF8C1104F4D68D1103D58E00
:1084C0001102F5D4028D1105F796B78B1103F88AC6
:1084D0001102F9DF03FF8B11028C11028E110002D1
:1084E0008D1106F593B6D68D1203F7B5D503B4D426
:1084F000FB01FD01FF0004F59FBFDF01F901FB0156
:10850000FD01FF05F493B6D6E503B5D5F803B4D461
:10851000FA01FC01FF0001DF000294B50000000336
:10852000F7D5E402F9D403FB8E1203FD8F1201FF8D
:1085300004F5DF8D1203F78B1203F98A1203FB9502
:10854000B603FD8B1203FF8E1204F4D68F1201D5F1
:1085500004F5D48E12028D1205F796B78A1201F82F
:1085600004F9DF8B1203FF8D12028E12028F1202AA
:108570008E12028D1206F593B6D6811503F7B5D586
:1085800003B4D4FB01FD01FF04F59FBFDF01F70138
:10859000FB01FD01FF0005F493B6D6E503F8B4D462
:1085A00001FA01FC01FF0001DF000294B5000003A5
:1085B000F5D6E402F7D502F9D403FB831503FD8455
:1085C0001503FF831504F5DF811503F7801503F903
:1085D0008F1403FB95B603FF811502831504F4D6AF
:1085E000841501D504F5D4831505F796B7801502D7
:1085F0008F1401F804F9DF801503FF81150284153B
:108600000002831506F593B6D68D1203F7B5D50390
:10861000B4D4FB01FD01FF0004F59FBFDF01F901A8
:10862000FB01FD01FF000593F6B5D5E503F8B4D4D1
:1086300001FA01FC01FF01DF00000294B500000314
:10864000F5D6E402F7D502F9D403FB8E1203FF8FAF
:1086500012028E1204F5DF8D1203F78B1203F98AD2
:10866000120595B6FD8B1203FF8D12028E1205F4D2
:1086700093D6811501D502F5D402F7B70002F8DFD1
:1086800001F901FF0194000006F593B6D68D12039F
:10869000D5F9B402D4FB01FD01FF0002DFF701F9B7
:1086A00003FB94B501FD01FF000693F6D5E58C119F
:1086B00003F8B4D401FA01FC01FF01DF00000294C9
:1086C000B5000003F5D6E402F7D502F9D403FB8D1B
:1086D0001103FF8E11028D1104F5DF8C1103F78B4E
:1086E0001103F98A110595B6FD8B1103FF8C110456
:1086F000F4D68D1103D58E1102F5D403F78C110435
:1087000096B78B1103F88A1102F9DF03FF8B110270
:108710008D11028E1100028D1106F593B6D68D12C1
:1087200003F9B4D401FB01FD01FF00049FBFDFF793
:1087300001F901FB01FD01FF05F493B6D6E503F64F
:10874000B5D503F8B4D401FA01FC01FF01DF000044
:108750000294B5000003F5D6E402F7D502F9D4037C
:10876000FD8F1201FF04F5DF8E1203F78D1203F95E
:108770008B1205FD95B68A1203FF8B12028D12042F
:10878000F4D68E1203D58F1204F5D48E1203F78D12
:10879000120496B78B1203F88A1202F9DF03FF8DD9
:1087A00012028E12028F1200028E120693F7B5D5B6
:1087B000811503F9B4D401FB01FD01FF04F59FBF4E
:1087C000DF01F701F901FB01FD01FF05F493B6D6C6
:1087D000E503F6B5D503F8B4D401FA01FF0001DFD3
:1087E00000000294B50003F5D6E402F7D502F9D4EF
:1087F00003FD831503FF84150004F5DF831503F7DC
:10880000811503FB8F1403FD95B603FF80150281CC
:108810001504F4D6831504F5D4841502831503F7E3
:1088200081150496B7801503F88F1404DFFF8015B7
:10883000028115028315028415000283150693F741
:10884000B5D58D1203F9B4D401FB01FD01FF04F588
:108850009FBFDF01F701F901FB01FD01FF05F49363
:10886000B6D6E503F6B5D503F8B4D401FA01FF0195
:10887000DF0000000294B50003F5D6E402F7D5024C
:10888000F9D403FD8E1203FF8F120004F5DF8E1260
:1088900003F78D1203FB8A1203FD95B603FF8B12BB
:1088A000028D1207F493D68115C43F02F5D400015E
:1088B000F701B701F804FFD5C72F01D401940000D8
:1088C00008F493B6D68D12C43F02B5D503F5B4D4DF
:1088D0000001F701F801F40001F50394B5D501F7A3
:1088E00009F49FB6D6E5AA1FC72F03F6B5D503F83E
:1088F000B4D401FA01FF0002BFDF00000000000451
:10890000F5B6D6E403F7B5D503B4D4FB01FD01FFFA
:108910000002F5DF01F902FBB501FD01FF0007F4DC
:1089200093D58E0BAB1703F5B4D40001F70002F911
:10893000DF01FF000294B5000005F5B6D6AA1F03BB
:10894000F7B5D503F9B4D403FB8F0B03FF800C04F8
:10895000F5D68F0B04F7D58E0B04F9D48D0B03FBE2
:108960008C0B0595B5FF8D0B028E0B09F493B6D6D3
:10897000E5890AAD1203F6B5D503F8B4D401FC01BC
:10898000FF0001DF000294B500000006F5B6D6E452
:10899000AA1F03F9B4D403FB8A0A03FD8B0A01FF63
:1089A000028A0A04DFF7880A03F9870A03FB95B5F0
:1089B00003FD880A03FF890A03F48A0A0693D58710
:1089C00009AB1703F5B4D40001F70002F9DF01FF8A
:1089D000000294B50005F5B6D6AA1F03F7B5D50376
:1089E000F9B4D401FB03FD880903FF890905F5B635
:1089F000DF880904F7B5870904F9B4860903FB8504
:108A0000090495FF860902870907F493B6D6E58E17
:108A10000803F6B5D503F8B4D401FC01FF0002BF8A
:108A2000DF00019400000007F593B6D6E487090340
:108A3000F9B4D401FB01FD01FF0002DFF701F903E6
:108A4000FB94B501FD01FF08F493B6D6890AAB1774
:108A500002B5D503F5B4D40001F702F8DF01F9013E
:108A6000FF000294B50008F593B6D68E0BAA1F033B
:108A7000F7B5D503F9B4D401FB01FF0002F5D60226
:108A8000F7D502F9D40394B5FD01FF0007F49FB6B2
:108A9000D6E5AD1203F6B5D503B4D4FA01FC01FF57
:108AA0000001DF0001B50000000693F7D5E4AA1F1E
:108AB00003F9B4D401FB01FD01FF02F5DF01F70169
:108AC000F903FB94B501FD08F493B6D68D0FAB17EF
:108AD00002B5D503F5B4D40001F701F802F9DF01BE
:108AE000FF000294B5000005F5B6D6AA1F03F7B53E
:108AF000D503F9B4D403FD8F0F01FF028E0F05F5E6
:108B0000B6DF8D0F04F7B58B0F05B4FB958A0F0305
:108B1000FD8B0F03FF8D0F028E0F0BF493B6D6E57E
:108B2000840DA823C43503F8B4D401FA01FC01FF75
:108B30000002BFDF000194000002F5E403F7B5D5A1
:108B400003F9B4D403FB850D03FD870D01F504DFA4
:108B5000F7840D03F9830D03FB820D03FD95B50327
:108B6000FF830D08F49FB6D6840DA91A02B5D5036C
:108B7000F5B4D40001F701F802F9DF01FF0001B5F7
:108B8000000006F593B6D6A82303F7B5D503F9B4CC
:108B9000D401FD01FF0002F5D602F7D504D4FB9401
:108BA000B501FD01FF0006F4B6D6E5A11503F8B442
:108BB000D403FA850D03FC870D01FF02850D06DF46
:108BC000B5A91A830D03B4820D019502830D0284A9
:108BD0000D08F7B5D5E4A823870D03F9B4D403FB3A
:108BE000850D03FD840D04FF96830D04F5DF820DD2
:108BF00003F7830D03F9840D04FBB5850D03FD8791
:108C00000D03FF850D0AF493B6D68D0FAA25C0007B
:108C100002B5D503F5B4D40001F701F805F9B6DFC4
:108C2000A82302FFB501B40194000005F5B6D6AA49
:108C30001F03F7B5D505B4D4FB8E0F03FD8F0F01CD
:108C4000FF028E0F04F5DF8D0F03F98A0F03FB95EA
:108C5000B503FD8B0F03FF8D0F028E0F06BFF6D5F8
:108C6000E58F0F04F8D48E0F03FA8D0F04FC968B5A
:108C70000F03FF8A0F03DF8B0F028D0F028E0F028F
:108C80008F0F0008F5B6D6E48D0FA21905F7B5D5FC
:108C90008B0F05F9B4D48A0F01FB03FD8B0F03FF83
:108CA0008E0F07F5B6DF8F0FA11502F7B504F9B4E3
:108CB0008E0F03FB8D0F0497FF8A0F0007F4B6D6C3
:108CC0008B0FAD0F04B5D58D0F05F5B4D48E0F0302
:108CD000F78F0F028E0F03F88D0F07F9B6DF8B0F9A
:108CE000A11504FFB58A0F03B48B0F028D0F028EFE
:108CF0000F028F0F05F5B6D6AD0F0698F9B4D48DD7
:108D00000F03FB8B0F03FD8A0F01FF028B0F07F789
:108D1000B5D5A90C8E0F05F9B4D48F0F01FB03FD57
:108D20008E0F03FF8D0F08D6F6B5E5AD0F8A0F0342
:108D3000F8B4D403FA8B0F03FC8D0F03FF8E0F02E0
:108D40008F0F07DF99B5A90C8E0F03B48D0F028B1F
:108D50000F028A0F0008F5B6D6E48D0FA90A05F7B1
:108D6000B5D58E0F05F9B4D48F0F01FB03FD8E0F1F
:108D700003FF8B0F07F5B6DF8A0FAE0702F7B504C6
:108D8000F9B48B0F03FB8D0F03FF8F0F0008F49ACC
:108D9000B6D68E0FA50604B5D58D0F05F5B4D48BC8
:108DA0000F03F78A0F028B0F03F88D0F07F9B6DF59
:108DB0008E0FAE0704FFB58F0F03B48E0F028D0F19
:108DC000028B0F028A0F05F4B6D6A90A05F5B4D4B2
:108DD0008D0F028E0F03F78F0F0008F499B6DF8E08
:108DE0000FA90C04F5B48B0F028A0F01F7028B0F49
:108DF00003F88D0F099FF6B5D5E5AA1FC72F03F815
:108E0000B4D401FA01FC01FF02BFDF000000000042
:108E100004F5B6D6E403F7B5D503F9B4D401FB01E4
:108E2000FF0002F5DF01F701F902B5FD01FF0008BF
:108E3000F493B6D68E0BAB1702B5D503F5B4D401B7
:108E4000F70001F802F9DF01FF0294B5000005F513
:108E5000B6D6AA1F03F9B4D401FB03FD8F0B03FFA1
:108E6000800C0004F7D58E0B04F9D48D0B04FBB5F0
:108E70008C0B02FD9503FF8D0B09F493B6D6E589A3
:108E80000AAD1203F6B5D503F8B4D401FA01FC011A
:108E9000FF01DF00000294B5000006F5B6D6E4AA93
:108EA0001F03F7B5D503F9B4D403FD8B0A01FF0204
:108EB0008A0A04F5DF890A03F7880A05FB95B58756
:108EC0000A03FD880A03FF890A028A0A08F493B696
:108ED000D68709AB1703F5B4D40001F70002F8DF19
:108EE00001FF000294B5000004F7D5AA1F03F9B4EE
:108EF000D401FB03FD880903FF890903F5880905EF
:108F0000DFF7B5870904F9B4860903FB850902FD7B
:108F10009503FF870907F493B6D6E58E0803F6B5E7
:108F2000D503F8B4D401FA01FF0002BFDF0000014D
:108F300094000007F593B6D6E4870903F7B5D50387
:108F4000F9B4D401FD01FF0002F5DF01F703FB9442
:108F5000B501FD01FF08F493B6D6890AAB1702B537
:108F6000D503F5B4D401F70001F802F9DF01FF02DF
:108F700094B50000000793F7D58E0BAA1F03F9B430
:108F8000D401FB01FD01FF02F5D602F7D502F9D4A9
:108F900003FB94B501FD01FF07F49FB6D6E5AD12C2
:108FA00003F6B5D503F8B4D401FA01FF0001DF00E0
:108FB0000001B5000007F593B6D6E4AA1F03F7B584
:108FC000D503B4D4FB01FD01FF02F5DF01F701FB7E
:108FD00003FD94B501FF0008F493B6D68D0FAB17CF
:108FE00003F5B4D40001F70001F802DFFF0002949A
:108FF000B5000005F5B6D6AA1F03F7B5D503F9B439
:10900000D403FB8E0F03FD8F0F03FF8E0F05F5B604
:10901000DF8D0F04F7B58B0F04F9B48A0F02FB95AF
:1090200003FF8D0F028E0F0BF493B6D6E5840DA8C7
:1090300023C43503F6B5D503F8B4D401FC01FF0011
:1090400002BFDF000194000004F5B6D6E403F7B5D3
:10905000D503B4D4FB03FD850D03FF870D0004F594
:10906000DF850D03F9830D04FBB5820D02FD950329
:10907000FF830D02840D05F49FD5A91A03F5B4D41E
:109080000001F70002F9DF01FF0001B5000006F55D
:1090900093B6D6A82303F7B5D503F9B4D401FB01E1
:1090A000FF0002F5D602F7D502F9D403FB94B5010F
:1090B000FF0006F4B6D6E5A11503F6B5D503F8B45E
:1090C000D403FC870D01FF06B6DF850DA91A03B591
:1090D000840D03B4830D0395820D02830D02840D6C
:1090E00008F5B6D6E4850DA82305F7B5D5870D0597
:1090F000B4D4FB850D03FD840D04FF96830D02821D
:109100000D02F5DF03F9840D04FBB5850D03FD8722
:109110000D01FF02850D09F493D58E0BAA25C72FEB
:1091200003F5B4D40001F70005F9B6DFA82302FF68
:10913000B501B40194000005F5B6D6AA1F03F7B532
:10914000D503F9B4D403FB8F0B03FF800C028F0B04
:1091500004F5DF8E0B03F78D0B03F98C0B0595B52A
:10916000FD8D0B03FF8E0B06F4BFD6E58F0B04F6C7
:10917000D5800C02F8D403FC8E0B04FF968D0B02F5
:109180008C0B01DF028D0B028F0B02800C00028F13
:109190000B08F5B6D6E48E0BAB1705F9B4D48C0BDF
:1091A00001FB03FD8D0B03FF8E0B028F0B07DFF717
:1091B000B5800CAD1204F9B48F0B03FB8E0B04FDCC
:1091C000978D0B03FF8C0B07F4B6D68D0BAD0F04F8
:1091D000B5D58E0B05F5B4D48F0B02800C01F703C7
:1091E000F88E0B07F9B6DF8D0BAD1204FFB58C0BB3
:1091F00001B4028D0B028F0B02800C05F5B6D6ADC3
:109200000F06F798B5D58F0B05F9B4D48E0B03FD77
:109210008C0B01FF07F5B6D68D0BAE0B05F7B5D558
:109220008E0B05F9B4D48F0B03FD800C03FF8F0B5D
:10923000028E0B08F4B6D6E58D0BAD0F05F6B5D54D
:109240008C0B05B4D4FA8D0B03FC8E0B03FF8F0B34
:1092500002800C04B6DFAE0B0499B48E0B028D0BAA
:10926000028C0B00028D0B08F7B5D5E4A7098F0B14
:1092700005F9B4D4800C01FB03FD8F0B03FF8E0BAB
:1092800006F5B68C0BAE0703DFF7B504F9B48D0B0A
:1092900003FB8E0B03FD8F0B03FF800C08F49AB6C3
:1092A000D68F0BAF0504B5D58E0B05F5B4D48D0B59
:1092B000028C0B03F78D0B03F88E0B07F9B6DF8FCB
:1092C0000BAE0704FFB5800C01B4028F0B028D0BAF
:1092D00007F4B6D68C0BA70902B5D505F5B4D48D25
:1092E0000B028E0B03F7800C01F808F499B6DF8FA0
:1092F0000BAE0B03B58E0B04F5B48D0B03F78C0B83
:10930000028D0B03F88E0B07F49FBFD6E5CF3F020B
:10931000F6D502D4FA01FC01FF0001DF00000000D5
:10932000000993F7B5D5E4820EAC1103F9B4D4016A
:10933000FB01FD01FF04F59FBFDF01F701F901FB10
:1093400001FD01FF04F493B6D602B5D503F5B4D4FC
:109350000001F702F8DF01F901FF000294B50004F3
:10936000F59FBFD602F7D502F9D401FD01FF000237
:10937000F5D602F7D502D4FB01FD01FF0005F493F9
:10938000B6D6E503F8B4D401FA01FC01FF0001DF11
:10939000000294B5000008F593B6D6E40AA20E03C5
:1093A000F7B5D503F9B4D401FB01FD01FF02F5DFE8
:1093B00001F701F903FB94B501FF02F4D601D502D0
:1093C000F5D40003F7800C01F804F9DF8F0B03FFDD
:1093D0008E0B028D0B0495B68C0B028D0B028E0B3F
:1093E00007F593D6890CAD0F03F7B5D503B4D4FBBD
:1093F00001FD01FF0002F5DF01F903FB94B501FD5A
:1094000001FF00079FBFF6D5E5C43F02F8D401FA7B
:1094100001FC01FF01DF000000000009F593B6D652
:10942000E48E0BAA1F03F7B5D503F9B4D401FB01F1
:10943000FF02F5DF01F701F901FB0394B5FF00041A
:10944000F49FBFD601D502F5D40001F701F802F967
:10945000DF01FF0000000008F593B6D6890AAA25AF
:1094600003F7B5D503B4D4FB01FD01FF0002F5D627
:1094700002F9D403FB94B501FD01FF0005F6D5E523
:10948000A11503F8B4D403FA8A0A03FC8B0A01FF7E
:1094900006B6DF890AA21903B5880A03B4870A0150
:1094A0009502880A09F593B6D6E4890CAA1F03F73A
:1094B000B5D503F9B4D401FB01FD01FF02F5DF01CD
:1094C000F701F903FB94B501FF0008F493B6D682C7
:1094D0000EAA2502B5D503F5B4D401F70001F805AD
:1094E000F9B6DFA82302FFB502B49400000008F526
:1094F00093B6D68D0FAA1F03F9B4D401FB01FD0169
:10950000FF0002DFF701F903FB94B501FD01FF073E
:10951000F49FBFD6E5CA2502F6D502F8D401FA01B8
:10952000FC02FFDF000000000009F593B6D6E489D5
:109530000CAD0F03F7B5D503F9B4D401FB01FF005F
:1095400004F59FBFDF01F701F901FD01FF0004F4FD
:1095500093B6D602B5D503F5B4D401F70001F802ED
:10956000F9DF01FF0294B5000000049FBFF7D502A8
:10957000F9D401FB01FD01FF02F5D602F7D502F98E
:10958000D401FB01FD04F493B6E503F6B5D503F869
:10959000B4D401FA01FC01FF01DF00000294B50020
:1095A0000009F593B6D6E4890AA90C03F7B5D503EB
:1095B000F9B4D401FD01FF0002F5DF01F701FB035F
:1095C00094B5FD01FF0002F4D601D504F5D48A0A52
:1095D00003F78B0A0003F88A0A04F9DF890A03FFFC
:1095E000870A0295B602880A02890A028A0A089343
:1095F000F7B5D58E0BA20E03F9B4D401FB01FD0122
:10960000FF02DFF701F901FB03FD94B501FF07F449
:109610009FBFD6E5C63802F6D502F8D401FA01FCA0
:1096200001FF01DF000000000009F593B6D6E489D0
:109630000AAA2503F7B5D503F9B4D401FD01FF004B
:1096400002F5DF01F703FB94B501FD01FF0004F40F
:109650009FBFD602F5D40001F70001F802DFFF003A
:109660000000000693F7B5D5870903F9B4D401FBD0
:1096700001FD01FF02F5D602F7D502F9D403FB94F0
:10968000B501FD01FF06F4B6D6E5AD1203F6B5D57A
:1096900003F8B4D403FA880903FF8909028809068C
:1096A000B6DF8709AB1703B5860903B485090395AF
:1096B000860902870902880909F593B6D6E4870965
:1096C000A31C03F7B5D503B4D4FB01FD01FF0002D1
:1096D000F5DF01F903FB94B501FD01FF0007F493E9
:1096E000D5890AAD1203F5B4D40001F70005DFF9FE
:1096F000B5AB1702FFB40001940007F493B68709D5
:10970000A31C02B5D503F5B4D40001F701F802F4A7
:10971000DF0001F50294B501F701F80BF493B6D61A
:10972000E58E08A72FCF3F03F6B5D503F8B4D401D3
:10973000FC01FF0002BFDF00019400000007F59369
:10974000B6D6E4870903F7B5D503B4D4FB01FD0110
:10975000FF0002F5DF01F903FB94B501FD01FF08ED
:10976000F493B6D68E08A82303F5B4D40001F7000D
:1097700001F802DFFF000294B5000008F593B6D6A9
:109780008E0BA72F03F7B5D503F9B4D401FB01FD68
:1097900001FF02F5D602F7D502F9D403FB94B50117
:1097A000FF0006F4B6D6E5A31C03F6B5D503F8B45E
:1097B000D403FC800C01FF028F0B03DF8E0B028DA4
:1097C0000B0495B58C0B028D0B028E0B028F0B08D0
:1097D000F5B6D6E4800CA72F05F9B4D48F0B03FBA4
:1097E0008E0B04FD968D0B03FF8C0B02F5DF03F946
:1097F0008E0B03FB8F0B04FDB5800C01FF028F0B5A
:1098000007F493D5890AA82303F5B4D40001F7001F
:1098100002F9DF01FF000294B5000008F593B6D607
:109820008709A72F03F7B5D503F9B4D401FB01FFCE
:109830000003F5B6DF02F7B502F9B40294FD01FFAB
:109840000007F493B6D6E58E0803F6B5D503B4D475
:10985000FA01FC01FF0002BFDF000194000007F5E0
:1098600093B6D6E4870903F9B4D401FB01FD01FFE7
:109870000002DFF701F903FB94B501FD01FF08F4D5
:1098800093B6D68E08A82302B5D503F5B4D400014B
:10989000F701F802F9DF01FF000294B5000008F5B6
:1098A00093B6D68E0BA72F03F7B5D503F9B4D40121
:1098B000FD01FF0002F5D602F7D503D4FB9402B5F3
:1098C000FD01FF0006F4B6D6E5A31C03B5D5F805E7
:1098D000B4D4FA8F0B03FC800C01FF03DF8F0B0263
:1098E0008E0B028C0B0295B5028D0B028E0B07F5C9
:1098F0009FB6D6E4A72F03F9B4D401FB01FD01FF05
:109900000002DFF701F902FBB501FD01FF06F49348
:10991000B6D6A82302B5D503F5B4D40001F701F8F3
:1099200002F9DF01FF000294B5000005F5B6D6A7E5
:109930002F03F7B5D503F9B4D403FD800C01FF0262
:109940008F0B05F5B6DF8E0B04F7B58D0B05B4FB59
:10995000958C0B03FD8D0B03FF8E0B0BF493B6D68A
:10996000E5890CA42AC43F03F6B5D503B4D4FA01A3
:10997000FC01FF0002BFDF0001940000000793F725
:10998000B5D5E48E0B03F9B4D401FB01FD01FF0250
:10999000F5DF01F701F903FB94B501FD01FF06F4C2
:1099A0009FB6D6AA1F02B5D503F5B4D40001F701BE
:1099B000F802F9DF01FF0001B5000008F593B6D603
:1099C000890AA42A03F7B5D503B4D4FB01FD01FF2E
:1099D00002F5D602F7D502D4FB03FD94B501FF00D2
:1099E00006F4B6D6E5A21903F8B4D401FA03FC8A4A
:1099F0000A03FF8B0A0003DF890A02880A03B5877E
:109A00000A019502880A08F5B6D6E48A0AA42A054E
:109A1000F7B5D58B0A03F9B4D403FB8A0A03FD8991
:109A20000A04FF96870A02F5DF03F7880A03F9891B
:109A30000A04FBB58A0A03FF8B0A028A0A07F4B6F6
:109A4000D6890AAA1F04B5D5880A05F5B4D4870AB1
:109A500003F7880A02890A03F88A0A04F9DF8B0AE5
:109A600001FF03B5890A0397880A02870A05F5B63C
:109A7000D6A42A05F7B5D5880A05B4D4FB8A0A030B
:109A8000FD8B0A01FF028A0A05F5B6DF890A04F791
:109A9000B5880A04B4FB870A03FD880A03FF890A14
:109AA000028A0A05F49FBFD6E502F8D401FA01FC48
:109AB00001FF0001DF0000000009F593B6D6E48441
:109AC0002AA21903F7B5D503F9B4D401FB01FD01AE
:109AD000FF07F5B6DF8A1FA11502F7B502F9B40139
:109AE000FB01FF0007F4B6D68219AD0F02B5D5030E
:109AF000F5B4D401F70007F8B6DF8A1FA11502F903
:109B0000B502FFB400000007F5B6D68219AD0F0309
:109B1000F7B5D503B4D4FB01FD01FF0007F5B6D6B8
:109B20008115A90C03F9B4D401FB01FD01FF000864
:109B3000F6B5D5E58219AD0F03F8B4D401FA01FCEE
:109B400001FF06B6DF8115A90C01B501B4000000C4
:109B500008F5B6D6E48D0FA90A03F7B5D503F9B415
:109B6000D401FB01FF0007F5B6DF890CAE0702F751
:109B7000B502F9B401FD01FF07F4B6D6890AA506BE
:109B800002B5D503F5B4D401F70001F807F9B6DF43
:109B9000890CAE0702FFB501B400000007F4B6D689
:109BA0008D0FA90A03F5B4D40001F70001F807F4FA
:109BB000DFB58115A90C02F5B40001F7000AF4B66F
:109BC000D6E58E07AA1FC72F03F6B5D503F8B4D480
:109BD00001FA01FC01FF02BFDF0000019400000454
:109BE000F5B6D6E403F7B5D503F9B4D403FD81087F
:109BF00001FF04F5DF8F0703F78E0703F98D0705D3
:109C0000FD95B58C0703FF8D07028E0707F4B6D6C6
:109C10008F07AB1704B5D5810805F5B4D48F0703BA
:109C2000F78E0703968D0703F88C0702F9DF03FF11
:109C30008D0703B58F0702810800028F0707F5B66D
:109C4000D68E07AA1F05F9B4D48C0701FB03FD8D3E
:109C50000703FF8E07028F0704F7D5810804F9D4A4
:109C60008F0704FBB58E0704FD978D0703FF8C0754
:109C700009F493B6D6E58709AD1203F6B5D503F816
:109C8000B4D401FA01FC01FF029FDF000001B5001E
:109C900007F593B6D6E4AA1F03F7B5D503F9B4D4F4
:109CA00001FB01FF0002F5DF01F701F90394B5FDA7
:109CB00001FF0008F493B6D68E08AB1702B5D503A2
:109CC000F5B4D401F70001F802F9DF01FF0294B501
:109CD0000000000793F7D58E07AA1F03F9B4D4013B
:109CE000FB01FD01FF03F5B6DF02F7B502F9B4028F
:109CF000FB9401FD01FF04F4B6D6E503F6B5D503E8
:109D0000F8B4D403FA8F0703FF810804BFDF8F077D
:109D1000028E07028D07028C0703958D07028E07BE
:109D200007F593B6D6E48E0B03F7B5D503F9B4D493
:109D300001FD01FF0003F59FDF01F702FBB501FD07
:109D400001FF0008F493B6D68107AB1703F5B4D42E
:109D50000001F70001F802DFFF000294B5000008DF
:109D6000F593B6D68E07AA1F03F7B5D503F9B4D479
:109D700001FB01FD01FF02F5D602F7D502F9D4037C
:109D8000FB94B501FF06F4B6D6E5AD1203F6B5D5E2
:109D900003F8B4D401FA03FF81080003DF8F070240
:109DA0008E07028D0704B5958C07028D07028E077A
:109DB00009F593B6D6E48709AA1F03F7B5D503B40E
:109DC000D4FB01FD01FF0003F59FDF01F902FBB5A4
:109DD00001FD01FF0008F493B6D6890AAB1703F51D
:109DE000B4D40001F70001F802DFFF000294B500CF
:109DF0000008F593B6D68709AA1F03F7B5D503F96E
:109E0000B4D401FB01FD03F5B6DF02F7B502F9B4E6
:109E100001FB02FD9401FF0BF493B6D6E58E08A377
:109E20001CC42A03F6B5D503F8B4D401FA01FF0027
:109E300002BFDF00000194000004F5B6D6E403F78A
:109E4000B5D505B4D4FB8F0803FD800901FF028F4F
:109E50000804F5DF8E0803F98C0803FB95B503FDB4
:109E60008D0803FF8E08028F0807F493D58709A198
:109E70001503F5B4D40001F70002F9DF01FF000279
:109E800094B50006F59FB6D6A31C03F7B5D503F924
:109E9000B4D401FB01FD01FF02F5D602F7D502F9AA
:109EA000D402FBB501FF0009F493B6D6E58E08ACE9
:109EB0001103F6B5D503F8B4D401FC01FF0001DFAE
:109EC000000294B500000009F593B6D6E48E07A30E
:109ED0001C03F9B4D401FB01FD01FF0002DFF7010F
:109EE000F903FB94B501FD01FF06F49FB6D6A11559
:109EF00002B5D503F5B4D40001F702F8DF01F9018A
:109F0000FF0001B50008F593B6D68709A31C03F737
:109F1000B5D503F9B4D401FB01FF0003F5B6DF02A8
:109F2000F7B502F9B40294FD01FF0009F49FB6D61B
:109F3000E5AA1FC43F03F6B5D503B4D4FA01FC016A
:109F4000FF0002BFDF00000000000793B6D6F7E471
:109F50008E0803F9B4D401FB01FD01FF0002DFF715
:109F600001F903FB94B501FD01FF07F493D58709BF
:109F7000A21903F5B4D40001F70002F9DF01FF00D4
:109F80000294B5000008F593B6D6890AAA1F03F714
:109F9000B5D503F9B4D401FB01FF0002F5D602F7F1
:109FA000D502F9D40394B5FD01FF0006F4B6D6E559
:109FB000A11503F6B5D505B4D4FA8A0A03FC8B0AB9
:109FC00001FF028A0A06B6DF890AA21903B4870ACA
:109FD000019502880A02890A028A0A08F7B5D5E4BF
:109FE0008B0AAA1F05F9B4D48A0A03FB890A04FD67
:109FF00096880A03FF870A04DFF7880A03F9890AAB
:10A0000003FB8A0A04FDB58B0A01FF07F4B6D68963
:10A010000AAA2504B5D5880A05F5B4D4870A000331
:10A02000F7880A03F88A0A07F9B6DF8B0AA8230221
:10A03000FFB503B48A0A02890A0397870A0006F467
:10A040009FB6D6AA1F02B5D503F5B4D401F7000117
:10A05000F802F4DF0002F5B501F70001F809F49306
:10A06000B6D6E58E07C72F03F8B4D401FA01FC0178
:10A07000FF0002BFDF000194000004F7B5D5E40340
:10A08000F9B4D401FB03FD8F0703FF810804F5DF5A
:10A090008F0703F78E0703F98D0704FBB58C0702C2
:10A0A000FD9503FF8E0707F4B6D68F07AB1704B5EF
:10A0B000D5810803F5B4D4028F0704F7968D070302
:10A0C000F88C0702F9DF03FF8D07028E0703B581C5
:10A0D0000800028F0707F5B6D68E07AA1F05F7B549
:10A0E000D58D0705B4D4FB8C0703FD8D0703FF8EC8
:10A0F00007028F0704F5D6810804F9D48F0704FB03
:10A10000B58E0704FD978D0703FF8C07000893D6D3
:10A11000F6E58709AD1203F8B4D401FA01FC01FF9A
:10A12000029FDF000001B500000693F7D5E4AA1FE7
:10A1300003F9B4D401FB01FD01FF02F5DF01F701D2
:10A14000F903FB94B501FD01FF08F493B6D68E0820
:10A15000AB1702B5D503F5B4D40001F701F802F945
:10A16000DF01FF000294B5000008F593B6D68E0714
:10A17000AA1F03F7B5D503B4D4FB01FD01FF00030B
:10A18000F5B6DF02F9B402FB9401FD01FF04F4B659
:10A19000D6E503F8B4D401FA03FC8F0703FF810866
:10A1A0000004BFDF8E07028D07028C070195028D28
:10A1B0000707F593B6D6E48E0B03F7B5D503F9B4CC
:10A1C000D401FB01FD01FF03F59FDF01F701F90257
:10A1D000FBB501FF0008F493B6D68107AB1702B5B3
:10A1E000D503F5B4D401F70001F802F9DF01FF024D
:10A1F00094B500000008F593B6D68E07AA1F03F9A0
:10A20000B4D401FB01FD01FF02F5D602F9D401FB34
:10A2100003FD94B501FF0005F6D5E5AD1203F8B4D2
:10A22000D401FA03FC8F0703FF810803DF8F0702C5
:10A230008E07028D0703B58C070195028E0709F57D
:10A2400093B6D6E48709AA1F03F7B5D503F9B4D4AA
:10A2500001FB01FF0003F59FDF01F701F902B5FDE6
:10A2600001FF0008F493B6D6890AAB1702B5D503EF
:10A27000F5B4D401F70001F802F9DF01FF0294B54B
:10A28000000008F593B6D68709AA1F03F9B4D401D4
:10A29000FB01FD01FF0003DFF7B502F9B402FB94F7
:10A2A00001FD01FF02F4E50A93F6B5D58E08A31C63
:10A2B000C42A03F8B4D401FA01FC01FF02BFDF0095
:10A2C000000194000004F5B6D6E403F7B5D503F910
:10A2D000B4D403FB8F0803FF8009028F0804F5DF65
:10A2E0008E0803F78D0803F98C080595B5FD8D08D8
:10A2F00003FF8E08028F0808F493B6D68709A115CC
:10A3000002B5D503F5B4D401F70002F8DF01F90175
:10A31000FF0294B5000006F59FB6D6A31C03F9B45E
:10A32000D401FB01FD01FF0002F7D502F9D402FBC5
:10A33000B501FD01FF09F493B6D6E58E08AC110313
:10A34000F6B5D503F8B4D401FA01FC01FF01DF0032
:10A35000000294B5000009F593B6D6E48709A31C62
:10A3600003F7B5D503F9B4D401FD01FF0002F5DF11
:10A3700001F703FB94B501FD01FF06F49FB6D6A1DA
:10A380001502B5D503F5B4D401F70001F802F9DFE1
:10A3900001FF01B50000000793F7D5890AA31C034C
:10A3A000F9B4D401FB01FD01FF03F5B6DF02F7B5F7
:10A3B00002F9B402FB9401FD01FF09F49FB6D6E552
:10A3C000AA1FC33203F6B5D503F8B4D401FA01FFCE
:10A3D0000002BFDF000000000005F593B6D6E403DD
:10A3E000F7B5D503B4D4FB01FD01FF02F5DF01F79A
:10A3F00001FB03FD94B501FF0008F493B6D6890C68
:10A40000A21903F5B4D40001F70001F802DFFF0040
:10A410000294B5000001F50993F7D58E0BAA1FC76A
:10A420002F03F9B4D401FB01FD01FF02F5D602F7B9
:10A43000D502F9D403FB94B501FD01FF06F4B6D6AD
:10A44000E5AD0F03F6B5D503F8B4D403FA8F0B03CB
:10A45000FF800C028F0B06B6DF8E0BAD1203B58D9D
:10A460000B03B48C0B03958D0B028E0B08F5B6D63F
:10A47000E48F0BAB1705F7B5D5800C03F9B4D40303
:10A48000FD8E0B04FF968D0B028C0B02F5DF03F79C
:10A490008D0B04FBB58F0B03FD800C01FF028F0BAE
:10A4A00007F4B6D68E0BAD0F05F5B4D48C0B0003B4
:10A4B000F78D0B028E0B03F88F0B07DFFFB5800CB7
:10A4C000AD1203B48F0B028E0B03978D0B028C0B16
:10A4D00006F49FB6D6AB1702B5D503F5B4D4000188
:10A4E000F701F802F4DF0001F501B501F701F8000A
:01A4F000FF6C
:00000001FF
